{"contracts/Election.sol":{"Election":{"abi":[{"anonymous":false,"inputs":[{"indexed":true,"internalType":"address","name":"_beneficiary","type":"address"}],"name":"AddedBeneficiary","type":"event"},{"anonymous":false,"inputs":[{"indexed":true,"internalType":"address","name":"_newPresident","type":"address"}],"name":"NewPresidentElected","type":"event"},{"anonymous":false,"inputs":[{"indexed":false,"internalType":"address","name":"president","type":"address"},{"indexed":false,"internalType":"string","name":"message","type":"string"}],"name":"NewPresidentElected","type":"event"},{"anonymous":false,"inputs":[{"indexed":true,"internalType":"address","name":"_newScrutateur","type":"address"}],"name":"NewScrutateurElected","type":"event"},{"anonymous":false,"inputs":[{"indexed":false,"internalType":"address","name":"scrutateur","type":"address"},{"indexed":false,"internalType":"string","name":"message","type":"string"}],"name":"NewScrutateurElected","type":"event"},{"anonymous":false,"inputs":[{"indexed":true,"internalType":"address","name":"previousOwner","type":"address"},{"indexed":true,"internalType":"address","name":"newOwner","type":"address"}],"name":"OwnershipTransferred","type":"event"},{"anonymous":false,"inputs":[{"indexed":true,"internalType":"uint256","name":"_resolutionId","type":"uint256"},{"indexed":false,"internalType":"string","name":"_description","type":"string"}],"name":"ResolutionAdded","type":"event"},{"anonymous":false,"inputs":[{"indexed":false,"internalType":"uint256","name":"resolutionId","type":"uint256"},{"indexed":false,"internalType":"uint256","name":"pour","type":"uint256"},{"indexed":false,"internalType":"uint256","name":"contre","type":"uint256"},{"indexed":false,"internalType":"uint256","name":"neutre","type":"uint256"},{"indexed":false,"internalType":"string","name":"resultMessage","type":"string"}],"name":"VoteCloture","type":"event"},{"anonymous":false,"inputs":[{"indexed":true,"internalType":"uint256","name":"_resolutionId","type":"uint256"},{"indexed":true,"internalType":"enum Election.Vote","name":"_vote","type":"uint8"}],"name":"VotedForResolution","type":"event"},{"inputs":[{"internalType":"uint256","name":"_resolutionId","type":"uint256"}],"name":"AfficherResolution","outputs":[{"internalType":"string","name":"","type":"string"}],"stateMutability":"view","type":"function"},{"inputs":[],"name":"InitialiserResolution","outputs":[],"stateMutability":"nonpayable","type":"function"},{"inputs":[{"internalType":"uint256","name":"_resolutionId","type":"uint256"}],"name":"ResultatResolution","outputs":[{"internalType":"uint256","name":"forVotes","type":"uint256"},{"internalType":"uint256","name":"againstVotes","type":"uint256"},{"internalType":"uint256","name":"neutralVotes","type":"uint256"}],"stateMutability":"view","type":"function"},{"inputs":[{"internalType":"uint256","name":"_resolutionId","type":"uint256"},{"internalType":"enum Election.Vote","name":"_vote","type":"uint8"}],"name":"VoterResolution","outputs":[],"stateMutability":"nonpayable","type":"function"},{"inputs":[{"internalType":"address[]","name":"_beneficiaries","type":"address[]"}],"name":"addToWhitelist","outputs":[],"stateMutability":"nonpayable","type":"function"},{"inputs":[{"internalType":"uint256","name":"_resolutionId","type":"uint256"}],"name":"cloturerVote","outputs":[],"stateMutability":"nonpayable","type":"function"},{"inputs":[],"name":"owner","outputs":[{"internalType":"address","name":"","type":"address"}],"stateMutability":"view","type":"function"},{"inputs":[],"name":"president","outputs":[{"internalType":"address","name":"","type":"address"}],"stateMutability":"view","type":"function"},{"inputs":[{"internalType":"address","name":"_beneficiary","type":"address"}],"name":"removeFromWhitelist","outputs":[],"stateMutability":"nonpayable","type":"function"},{"inputs":[],"name":"resolutionsCount","outputs":[{"internalType":"uint256","name":"","type":"uint256"}],"stateMutability":"view","type":"function"},{"inputs":[],"name":"scrutateur","outputs":[{"internalType":"address","name":"","type":"address"}],"stateMutability":"view","type":"function"},{"inputs":[{"internalType":"address","name":"newOwner","type":"address"}],"name":"transferOwnership","outputs":[],"stateMutability":"nonpayable","type":"function"},{"inputs":[{"internalType":"address","name":"","type":"address"}],"name":"whitelist","outputs":[{"internalType":"bool","name":"","type":"bool"}],"stateMutability":"view","type":"function"}],"evm":{"bytecode":{"linkReferences":{},"object":"6080604052348015600f57600080fd5b50336000806101000a81548173ffffffffffffffffffffffffffffffffffffffff021916908373ffffffffffffffffffffffffffffffffffffffff1602179055506125148061005f6000396000f3fe608060405234801561001057600080fd5b50600436106100cf5760003560e01c80639b19251a1161008c578063e1a93f7111610066578063e1a93f7114610200578063ea7cb5061461021c578063f2fde38b14610226578063f3f1c70514610242576100cf565b80639b19251a14610184578063c4fc2a01146101b4578063cb588875146101e4576100cf565b8063324a1376146100d457806343e5f734146100f2578063710cefcc146101105780637f6497831461012e5780638ab1d6811461014a5780638da5cb5b14610166575b600080fd5b6100dc610274565b6040516100e99190611420565b60405180910390f35b6100fa61029a565b6040516101079190611454565b60405180910390f35b6101186102a0565b6040516101259190611420565b60405180910390f35b610148600480360381019061014391906114de565b6102c6565b005b610164600480360381019061015f9190611557565b6103f2565b005b61016e6104db565b60405161017b9190611420565b60405180910390f35b61019e60048036038101906101999190611557565b6104ff565b6040516101ab919061159f565b60405180910390f35b6101ce60048036038101906101c991906115e6565b61051f565b6040516101db91906116a3565b60405180910390f35b6101fe60048036038101906101f991906116ea565b6105c4565b005b61021a600480360381019061021591906115e6565b610823565b005b610224610aa5565b005b610240600480360381019061023b9190611557565b610cc1565b005b61025c600480360381019061025791906115e6565b610e7b565b60405161026b9392919061172a565b60405180910390f35b600260009054906101000a900473ffffffffffffffffffffffffffffffffffffffff1681565b60045481565b600360009054906101000a900473ffffffffffffffffffffffffffffffffffffffff1681565b60008054906101000a900473ffffffffffffffffffffffffffffffffffffffff1673ffffffffffffffffffffffffffffffffffffffff163373ffffffffffffffffffffffffffffffffffffffff1614610354576040517f08c379a000000000000000000000000000000000000000000000000000000000815260040161034b906117ad565b60405180910390fd5b60005b828290508110156103ed57600180600085858581811061037a576103796117cd565b5b905060200201602081019061038f9190611557565b73ffffffffffffffffffffffffffffffffffffffff1673ffffffffffffffffffffffffffffffffffffffff16815260200190815260200160002060006101000a81548160ff0219169083151502179055508080600101915050610357565b505050565b60008054906101000a900473ffffffffffffffffffffffffffffffffffffffff1673ffffffffffffffffffffffffffffffffffffffff163373ffffffffffffffffffffffffffffffffffffffff1614610480576040517f08c379a0000000000000000000000000000000000000000000000000000000008152600401610477906117ad565b60405180910390fd5b6000600160008373ffffffffffffffffffffffffffffffffffffffff1673ffffffffffffffffffffffffffffffffffffffff16815260200190815260200160002060006101000a81548160ff02191690831515021790555050565b60008054906101000a900473ffffffffffffffffffffffffffffffffffffffff1681565b60016020528060005260406000206000915054906101000a900460ff1681565b606060066000838152602001908152602001600020805461053f9061182b565b80601f016020809104026020016040519081016040528092919081815260200182805461056b9061182b565b80156105b85780601f1061058d576101008083540402835291602001916105b8565b820191906000526020600020905b81548152906001019060200180831161059b57829003601f168201915b50505050509050919050565b6005600083815260200190815260200160002060003373ffffffffffffffffffffffffffffffffffffffff1673ffffffffffffffffffffffffffffffffffffffff16815260200190815260200160002060009054906101000a900460ff1615610662576040517f08c379a0000000000000000000000000000000000000000000000000000000008152600401610659906118a8565b60405180910390fd5b6000816002811115610677576106766118c8565b5b1015801561069857506002816002811115610695576106946118c8565b5b11155b6106d7576040517f08c379a00000000000000000000000000000000000000000000000000000000081526004016106ce90611943565b60405180910390fd5b60016005600084815260200190815260200160002060003373ffffffffffffffffffffffffffffffffffffffff1673ffffffffffffffffffffffffffffffffffffffff16815260200190815260200160002060006101000a81548160ff02191690831515021790555060006002811115610754576107536118c8565b5b816002811115610767576107666118c8565b5b0361079a5760076000838152602001908152602001600020600081548092919061079090611992565b919050555061081f565b600160028111156107ae576107ad6118c8565b5b8160028111156107c1576107c06118c8565b5b036107f4576008600083815260200190815260200160002060008154809291906107ea90611992565b919050555061081e565b60096000838152602001908152602001600020600081548092919061081890611992565b91905055505b5b5050565b60008054906101000a900473ffffffffffffffffffffffffffffffffffffffff1673ffffffffffffffffffffffffffffffffffffffff163373ffffffffffffffffffffffffffffffffffffffff16146108b1576040517f08c379a00000000000000000000000000000000000000000000000000000000081526004016108a8906117ad565b60405180910390fd5b60006006600083815260200190815260200160002080546108d19061182b565b905011610913576040517f08c379a000000000000000000000000000000000000000000000000000000000815260040161090a90611a26565b60405180910390fd5b6000600760008381526020019081526020016000205490506000600860008481526020019081526020016000205490506000600960008581526020019081526020016000205490506060828411801561096b57508184115b156109b557610978610f19565b6040518060400160405280601e81526020017f4c61207265736f6c7574696f6e20612065746520617070726f757665652e00008152509050610a5f565b83831180156109c357508183115b15610a05576040518060400160405280601c81526020017f4c61207265736f6c7574696f6e2061206574652072656a657465652e000000008152509050610a5e565b8382118015610a1357508282115b15610a3857604051806080016040528060478152602001612444604791399050610a5d565b6040518060800160405280605a8152602001611f3f605a91399050610a5c85611233565b5b5b5b7f74eab9e861e52c08183e9fb8da301c8f9baeb5d20a40ddd77179864d33e486e68585858585604051610a96959493929190611a46565b60405180910390a15050505050565b60008054906101000a900473ffffffffffffffffffffffffffffffffffffffff1673ffffffffffffffffffffffffffffffffffffffff163373ffffffffffffffffffffffffffffffffffffffff1614610b33576040517f08c379a0000000000000000000000000000000000000000000000000000000008152600401610b2a906117ad565b60405180910390fd5b610b546040518060a00160405280607b815260200161229d607b9139611367565b610b756040518060a001604052806076815260200161215760769139611367565b610b966040518060a0016040528060738152602001611f9960739139611367565b610bb76040518060a001604052806066815260200161231860669139611367565b610bd86040518060a00160405280607881526020016120df60789139611367565b610bf960405180608001604052806057815260200161200c60579139611367565b610c1a6040518060a00160405280607381526020016123d160739139611367565b610c3b6040518060a0016040528060738152602001611ecc60739139611367565b610c5c6040518060a00160405280607c8152602001612063607c9139611367565b610c7d6040518060a00160405280606a81526020016121cd606a9139611367565b610c9e6040518060a0016040528060768152602001611e5660769139611367565b610cbf6040518060a001604052806066815260200161223760669139611367565b565b60008054906101000a900473ffffffffffffffffffffffffffffffffffffffff1673ffffffffffffffffffffffffffffffffffffffff163373ffffffffffffffffffffffffffffffffffffffff1614610d4f576040517f08c379a0000000000000000000000000000000000000000000000000000000008152600401610d46906117ad565b60405180910390fd5b600073ffffffffffffffffffffffffffffffffffffffff168173ffffffffffffffffffffffffffffffffffffffff1603610dbe576040517f08c379a0000000000000000000000000000000000000000000000000000000008152600401610db590611aec565b60405180910390fd5b8073ffffffffffffffffffffffffffffffffffffffff1660008054906101000a900473ffffffffffffffffffffffffffffffffffffffff1673ffffffffffffffffffffffffffffffffffffffff167f8be0079c531659141344cd1fd0a4f28419497f9722a3daafe3b4186f6b6457e060405160405180910390a3806000806101000a81548173ffffffffffffffffffffffffffffffffffffffff021916908373ffffffffffffffffffffffffffffffffffffffff16021790555050565b60008060008084118015610e9157506004548411155b610ed0576040517f08c379a0000000000000000000000000000000000000000000000000000000008152600401610ec790611b58565b60405180910390fd5b6007600085815260200190815260200160002054925060086000858152602001908152602001600020549150600960008581526020019081526020016000205490509193909250565b600073ffffffffffffffffffffffffffffffffffffffff16600260009054906101000a900473ffffffffffffffffffffffffffffffffffffffff1673ffffffffffffffffffffffffffffffffffffffff16148015610f9e5750600860006001815260200190815260200160002054600760006001815260200190815260200160002054115b8015610fd15750600960006001815260200190815260200160002054600760006001815260200190815260200160002054115b156110a55773ee868457836bc3f2c05f7ad7f254d807ea4ea575600260006101000a81548173ffffffffffffffffffffffffffffffffffffffff021916908373ffffffffffffffffffffffffffffffffffffffff160217905550600060405180608001604052806053815260200161237e6053913990507fbd9ed5d68679b2b11d557820b1766cb8b8d7d8b3d60422f294753d50c856d62b600260009054906101000a900473ffffffffffffffffffffffffffffffffffffffff168260405161109b929190611b78565b60405180910390a1505b600073ffffffffffffffffffffffffffffffffffffffff16600360009054906101000a900473ffffffffffffffffffffffffffffffffffffffff1673ffffffffffffffffffffffffffffffffffffffff1614801561112a5750600860006002815260200190815260200160002054600760006002815260200190815260200160002054115b801561115d5750600960006002815260200190815260200160002054600760006002815260200190815260200160002054115b156112315773ee868457836bc3f2c05f7ad7f254d807ea4ea575600360006101000a81548173ffffffffffffffffffffffffffffffffffffffff021916908373ffffffffffffffffffffffffffffffffffffffff160217905550600060405180608001604052806054815260200161248b6054913990507f05068908b9a4035f4209543f871c98eb4e32143193eea44c8cdefba5a06a2fc5600360009054906101000a900473ffffffffffffffffffffffffffffffffffffffff1682604051611227929190611b78565b60405180910390a1505b565b60006006600083815260200190815260200160002080546112539061182b565b905011611295576040517f08c379a000000000000000000000000000000000000000000000000000000000815260040161128c90611a26565b60405180910390fd5b60006007600083815260200190815260200160002081905550600060086000838152602001908152602001600020819055506000600960008381526020019081526020016000208190555060005b6004548110156113635760006005600084815260200190815260200160002060003373ffffffffffffffffffffffffffffffffffffffff1673ffffffffffffffffffffffffffffffffffffffff16815260200190815260200160002060006101000a81548160ff02191690831515021790555080806001019150506112e3565b5050565b6004600081548092919061137a90611992565b91905055508060066000600454815260200190815260200160002090816113a19190611d83565b506004547f14a9277804b56a381d8e536e29b9ed92b395e36216ed9d175d8bc6d706bda82c826040516113d491906116a3565b60405180910390a250565b600073ffffffffffffffffffffffffffffffffffffffff82169050919050565b600061140a826113df565b9050919050565b61141a816113ff565b82525050565b60006020820190506114356000830184611411565b92915050565b6000819050919050565b61144e8161143b565b82525050565b60006020820190506114696000830184611445565b92915050565b600080fd5b600080fd5b600080fd5b600080fd5b600080fd5b60008083601f84011261149e5761149d611479565b5b8235905067ffffffffffffffff8111156114bb576114ba61147e565b5b6020830191508360208202830111156114d7576114d6611483565b5b9250929050565b600080602083850312156114f5576114f461146f565b5b600083013567ffffffffffffffff81111561151357611512611474565b5b61151f85828601611488565b92509250509250929050565b611534816113ff565b811461153f57600080fd5b50565b6000813590506115518161152b565b92915050565b60006020828403121561156d5761156c61146f565b5b600061157b84828501611542565b91505092915050565b60008115159050919050565b61159981611584565b82525050565b60006020820190506115b46000830184611590565b92915050565b6115c38161143b565b81146115ce57600080fd5b50565b6000813590506115e0816115ba565b92915050565b6000602082840312156115fc576115fb61146f565b5b600061160a848285016115d1565b91505092915050565b600081519050919050565b600082825260208201905092915050565b60005b8381101561164d578082015181840152602081019050611632565b60008484015250505050565b6000601f19601f8301169050919050565b600061167582611613565b61167f818561161e565b935061168f81856020860161162f565b61169881611659565b840191505092915050565b600060208201905081810360008301526116bd818461166a565b905092915050565b600381106116d257600080fd5b50565b6000813590506116e4816116c5565b92915050565b600080604083850312156117015761170061146f565b5b600061170f858286016115d1565b9250506020611720858286016116d5565b9150509250929050565b600060608201905061173f6000830186611445565b61174c6020830185611445565b6117596040830184611445565b949350505050565b7f4e6f7420617574686f72697a6564206f7065726174696f6e0000000000000000600082015250565b600061179760188361161e565b91506117a282611761565b602082019050919050565b600060208201905081810360008301526117c68161178a565b9050919050565b7f4e487b7100000000000000000000000000000000000000000000000000000000600052603260045260246000fd5b7f4e487b7100000000000000000000000000000000000000000000000000000000600052602260045260246000fd5b6000600282049050600182168061184357607f821691505b602082108103611856576118556117fc565b5b50919050565b7f566f7573206176657a2064656a6120766f74652e000000000000000000000000600082015250565b600061189260148361161e565b915061189d8261185c565b602082019050919050565b600060208201905081810360008301526118c181611885565b9050919050565b7f4e487b7100000000000000000000000000000000000000000000000000000000600052602160045260246000fd5b7f566f746520696e76616c6964652e000000000000000000000000000000000000600082015250565b600061192d600e8361161e565b9150611938826118f7565b602082019050919050565b6000602082019050818103600083015261195c81611920565b9050919050565b7f4e487b7100000000000000000000000000000000000000000000000000000000600052601160045260246000fd5b600061199d8261143b565b91507fffffffffffffffffffffffffffffffffffffffffffffffffffffffffffffffff82036119cf576119ce611963565b5b600182019050919050565b7f5265736f6c7574696f6e20696e636f6e6e756500000000000000000000000000600082015250565b6000611a1060138361161e565b9150611a1b826119da565b602082019050919050565b60006020820190508181036000830152611a3f81611a03565b9050919050565b600060a082019050611a5b6000830188611445565b611a686020830187611445565b611a756040830186611445565b611a826060830185611445565b8181036080830152611a94818461166a565b90509695505050505050565b7f416464726573732073686f756c646e2774206265207a65726f00000000000000600082015250565b6000611ad660198361161e565b9150611ae182611aa0565b602082019050919050565b60006020820190508181036000830152611b0581611ac9565b9050919050565b7f5265736f6c7574696f6e20696e76616c6964652e000000000000000000000000600082015250565b6000611b4260148361161e565b9150611b4d82611b0c565b602082019050919050565b60006020820190508181036000830152611b7181611b35565b9050919050565b6000604082019050611b8d6000830185611411565b8181036020830152611b9f818461166a565b90509392505050565b7f4e487b7100000000000000000000000000000000000000000000000000000000600052604160045260246000fd5b60008190508160005260206000209050919050565b60006020601f8301049050919050565b600082821b905092915050565b600060088302611c397fffffffffffffffffffffffffffffffffffffffffffffffffffffffffffffffff82611bfc565b611c438683611bfc565b95508019841693508086168417925050509392505050565b6000819050919050565b6000611c80611c7b611c768461143b565b611c5b565b61143b565b9050919050565b6000819050919050565b611c9a83611c65565b611cae611ca682611c87565b848454611c09565b825550505050565b600090565b611cc3611cb6565b611cce818484611c91565b505050565b5b81811015611cf257611ce7600082611cbb565b600181019050611cd4565b5050565b601f821115611d3757611d0881611bd7565b611d1184611bec565b81016020851015611d20578190505b611d34611d2c85611bec565b830182611cd3565b50505b505050565b600082821c905092915050565b6000611d5a60001984600802611d3c565b1980831691505092915050565b6000611d738383611d49565b9150826002028217905092915050565b611d8c82611613565b67ffffffffffffffff811115611da557611da4611ba8565b5b611daf825461182b565b611dba828285611cf6565b600060209050601f831160018114611ded5760008415611ddb578287015190505b611de58582611d67565b865550611e4d565b601f198416611dfb86611bd7565b60005b82811015611e2357848901518255600182019150602085019450602081019050611dfe565b86831015611e405784890151611e3c601f891682611d49565b8355505b6001600288020188555050505b50505050505056fe4c616e63657220756e2064656669206e6174696f6e616c203a2071756920726575737369726120612074656e6972203234682073616e73207574696c6973657220756e206d6f742061206c61206d6f646520636f6d6d6520276475726162696c69746527206f752027696e6e6f766174696f6e27203f52656d706c61636572206c65205061726c656d656e742070617220756e2067726f7570652057686174734170702c20706f7572206465732064656261747320706c757320726561637469667320657420646573206465636973696f6e73206261736565732073757220646573206d656d65732e4c61207265736f6c7574696f6e206e27612070617320646520726573756c74617420636c61697220286567616c69746520656e747265206c657320766f746573292e204f6e206661697420756e207365636f6e6420746f75722e4f666672697220756e65206d656461696c6c652064276f72206120636861717565206369746f79656e20706f75722061766f697220277361757665206c6120706c616e6574652720656e20747269616e7420736f6e2064656368657420756e6520666f69732064616e73206c27616e6e65652e5461786572206c6573207265737069726174696f6e732074726f702070726f666f6e646573206166696e206465206c696d69746572206c657320656d697373696f6e7320646520434f32206465732068756d61696e732e5265636f6d70656e73657220746f75746520706572736f6e6e652063617061626c6520646520626f69726520756e20636166652073616e732070726f647569726520756e206465636865742c206e69207061726c6572206465206c276578706c6f697420737572206c6573207265736561757820736f63696175782e4f626c6967657220746f7573206c657320656d706c6f79657320612066616972652064752074656c657472617661696c2064657075697320756e2068616d61632c20706f7572206d6178696d69736572206c612070726f647563746976697465206574206c657320636f75707320646520736f6c65696c2e566f756c657a2d766f757320656c697265204d616e75656c6120636f6d6d652073637275746174657572206465206c61207365616e63652c20756e20706f737465206372756369616c20717569206368616e67657261206c6520636f757273206465206c27686973746f6972652e204f75207061732e4f7267616e69736572206465732073656d696e616972657320737572206c6120726564756374696f6e2064657320656d697373696f6e7320646520636172626f6e652e2e2e20756e697175656d656e742061636365737369626c657320656e206a65742070726976652e4d657474726520656e20706c61636520756e6520636f6d6d697373696f6e20706f75722064656369646572207369206c6573206465636973696f6e7320646f6976656e7420657472652064656369646565732070617220756e6520636f6d6d697373696f6e2e566f756c657a2d766f757320656c69726520436c656d656e636520636f6d6d6520707265736964656e7465206465206c61207365616e63652c20636172207269656e206e65207065757420636f6d6d656e6365722073616e7320756e65206669677572652064276175746f726974652073796d626f6c697175652e52656d706c6163657220746f75746573206c657320766f6974757265732070617220646573206c69636f726e65732062696f64656772616461626c65732c20706172636520717565206c27696e6e6f766174696f6e20632765737420696d706f7274616e742e4c6520726f6c6520646520707265736964656e742061206574652061747472696275652061206c2761647265737365207370656369666965652061707265732076616c69646174696f6e20647520766f74652e5472616e73666f726d657220746f7573206c657320696d6d6575626c657320656e207061696e2064276570696365732c206361722063276573742061757373692064757261626c6520717565206475206265746f6e206d6169732062656175636f757020706c75732064656c6963696575782e4c61207265736f6c7574696f6e2061206574652072656a657465652c20636172206c61206d616a6f726974652064657320766f7465732065746169656e74206e6575747265732e4c6520726f6c6520646520736372757461746575722061206574652061747472696275652061206c2761647265737365207370656369666965652061707265732076616c69646174696f6e20647520766f74652ea26469706673582212202093617a4284ca53252bb1c6800685cbde14457f4700a86a9bda31d3998a353e64736f6c634300081c0033","opcodes":"PUSH1 0x80 PUSH1 0x40 MSTORE CALLVALUE DUP1 ISZERO PUSH1 0xF JUMPI PUSH1 0x0 DUP1 REVERT JUMPDEST POP CALLER PUSH1 0x0 DUP1 PUSH2 0x100 EXP DUP2 SLOAD DUP2 PUSH20 0xFFFFFFFFFFFFFFFFFFFFFFFFFFFFFFFFFFFFFFFF MUL NOT AND SWAP1 DUP4 PUSH20 0xFFFFFFFFFFFFFFFFFFFFFFFFFFFFFFFFFFFFFFFF AND MUL OR SWAP1 SSTORE POP PUSH2 0x2514 DUP1 PUSH2 0x5F PUSH1 0x0 CODECOPY PUSH1 0x0 RETURN INVALID PUSH1 0x80 PUSH1 0x40 MSTORE CALLVALUE DUP1 ISZERO PUSH2 0x10 JUMPI PUSH1 0x0 DUP1 REVERT JUMPDEST POP PUSH1 0x4 CALLDATASIZE LT PUSH2 0xCF JUMPI PUSH1 0x0 CALLDATALOAD PUSH1 0xE0 SHR DUP1 PUSH4 0x9B19251A GT PUSH2 0x8C JUMPI DUP1 PUSH4 0xE1A93F71 GT PUSH2 0x66 JUMPI DUP1 PUSH4 0xE1A93F71 EQ PUSH2 0x200 JUMPI DUP1 PUSH4 0xEA7CB506 EQ PUSH2 0x21C JUMPI DUP1 PUSH4 0xF2FDE38B EQ PUSH2 0x226 JUMPI DUP1 PUSH4 0xF3F1C705 EQ PUSH2 0x242 JUMPI PUSH2 0xCF JUMP JUMPDEST DUP1 PUSH4 0x9B19251A EQ PUSH2 0x184 JUMPI DUP1 PUSH4 0xC4FC2A01 EQ PUSH2 0x1B4 JUMPI DUP1 PUSH4 0xCB588875 EQ PUSH2 0x1E4 JUMPI PUSH2 0xCF JUMP JUMPDEST DUP1 PUSH4 0x324A1376 EQ PUSH2 0xD4 JUMPI DUP1 PUSH4 0x43E5F734 EQ PUSH2 0xF2 JUMPI DUP1 PUSH4 0x710CEFCC EQ PUSH2 0x110 JUMPI DUP1 PUSH4 0x7F649783 EQ PUSH2 0x12E JUMPI DUP1 PUSH4 0x8AB1D681 EQ PUSH2 0x14A JUMPI DUP1 PUSH4 0x8DA5CB5B EQ PUSH2 0x166 JUMPI JUMPDEST PUSH1 0x0 DUP1 REVERT JUMPDEST PUSH2 0xDC PUSH2 0x274 JUMP JUMPDEST PUSH1 0x40 MLOAD PUSH2 0xE9 SWAP2 SWAP1 PUSH2 0x1420 JUMP JUMPDEST PUSH1 0x40 MLOAD DUP1 SWAP2 SUB SWAP1 RETURN JUMPDEST PUSH2 0xFA PUSH2 0x29A JUMP JUMPDEST PUSH1 0x40 MLOAD PUSH2 0x107 SWAP2 SWAP1 PUSH2 0x1454 JUMP JUMPDEST PUSH1 0x40 MLOAD DUP1 SWAP2 SUB SWAP1 RETURN JUMPDEST PUSH2 0x118 PUSH2 0x2A0 JUMP JUMPDEST PUSH1 0x40 MLOAD PUSH2 0x125 SWAP2 SWAP1 PUSH2 0x1420 JUMP JUMPDEST PUSH1 0x40 MLOAD DUP1 SWAP2 SUB SWAP1 RETURN JUMPDEST PUSH2 0x148 PUSH1 0x4 DUP1 CALLDATASIZE SUB DUP2 ADD SWAP1 PUSH2 0x143 SWAP2 SWAP1 PUSH2 0x14DE JUMP JUMPDEST PUSH2 0x2C6 JUMP JUMPDEST STOP JUMPDEST PUSH2 0x164 PUSH1 0x4 DUP1 CALLDATASIZE SUB DUP2 ADD SWAP1 PUSH2 0x15F SWAP2 SWAP1 PUSH2 0x1557 JUMP JUMPDEST PUSH2 0x3F2 JUMP JUMPDEST STOP JUMPDEST PUSH2 0x16E PUSH2 0x4DB JUMP JUMPDEST PUSH1 0x40 MLOAD PUSH2 0x17B SWAP2 SWAP1 PUSH2 0x1420 JUMP JUMPDEST PUSH1 0x40 MLOAD DUP1 SWAP2 SUB SWAP1 RETURN JUMPDEST PUSH2 0x19E PUSH1 0x4 DUP1 CALLDATASIZE SUB DUP2 ADD SWAP1 PUSH2 0x199 SWAP2 SWAP1 PUSH2 0x1557 JUMP JUMPDEST PUSH2 0x4FF JUMP JUMPDEST PUSH1 0x40 MLOAD PUSH2 0x1AB SWAP2 SWAP1 PUSH2 0x159F JUMP JUMPDEST PUSH1 0x40 MLOAD DUP1 SWAP2 SUB SWAP1 RETURN JUMPDEST PUSH2 0x1CE PUSH1 0x4 DUP1 CALLDATASIZE SUB DUP2 ADD SWAP1 PUSH2 0x1C9 SWAP2 SWAP1 PUSH2 0x15E6 JUMP JUMPDEST PUSH2 0x51F JUMP JUMPDEST PUSH1 0x40 MLOAD PUSH2 0x1DB SWAP2 SWAP1 PUSH2 0x16A3 JUMP JUMPDEST PUSH1 0x40 MLOAD DUP1 SWAP2 SUB SWAP1 RETURN JUMPDEST PUSH2 0x1FE PUSH1 0x4 DUP1 CALLDATASIZE SUB DUP2 ADD SWAP1 PUSH2 0x1F9 SWAP2 SWAP1 PUSH2 0x16EA JUMP JUMPDEST PUSH2 0x5C4 JUMP JUMPDEST STOP JUMPDEST PUSH2 0x21A PUSH1 0x4 DUP1 CALLDATASIZE SUB DUP2 ADD SWAP1 PUSH2 0x215 SWAP2 SWAP1 PUSH2 0x15E6 JUMP JUMPDEST PUSH2 0x823 JUMP JUMPDEST STOP JUMPDEST PUSH2 0x224 PUSH2 0xAA5 JUMP JUMPDEST STOP JUMPDEST PUSH2 0x240 PUSH1 0x4 DUP1 CALLDATASIZE SUB DUP2 ADD SWAP1 PUSH2 0x23B SWAP2 SWAP1 PUSH2 0x1557 JUMP JUMPDEST PUSH2 0xCC1 JUMP JUMPDEST STOP JUMPDEST PUSH2 0x25C PUSH1 0x4 DUP1 CALLDATASIZE SUB DUP2 ADD SWAP1 PUSH2 0x257 SWAP2 SWAP1 PUSH2 0x15E6 JUMP JUMPDEST PUSH2 0xE7B JUMP JUMPDEST PUSH1 0x40 MLOAD PUSH2 0x26B SWAP4 SWAP3 SWAP2 SWAP1 PUSH2 0x172A JUMP JUMPDEST PUSH1 0x40 MLOAD DUP1 SWAP2 SUB SWAP1 RETURN JUMPDEST PUSH1 0x2 PUSH1 0x0 SWAP1 SLOAD SWAP1 PUSH2 0x100 EXP SWAP1 DIV PUSH20 0xFFFFFFFFFFFFFFFFFFFFFFFFFFFFFFFFFFFFFFFF AND DUP2 JUMP JUMPDEST PUSH1 0x4 SLOAD DUP2 JUMP JUMPDEST PUSH1 0x3 PUSH1 0x0 SWAP1 SLOAD SWAP1 PUSH2 0x100 EXP SWAP1 DIV PUSH20 0xFFFFFFFFFFFFFFFFFFFFFFFFFFFFFFFFFFFFFFFF AND DUP2 JUMP JUMPDEST PUSH1 0x0 DUP1 SLOAD SWAP1 PUSH2 0x100 EXP SWAP1 DIV PUSH20 0xFFFFFFFFFFFFFFFFFFFFFFFFFFFFFFFFFFFFFFFF AND PUSH20 0xFFFFFFFFFFFFFFFFFFFFFFFFFFFFFFFFFFFFFFFF AND CALLER PUSH20 0xFFFFFFFFFFFFFFFFFFFFFFFFFFFFFFFFFFFFFFFF AND EQ PUSH2 0x354 JUMPI PUSH1 0x40 MLOAD PUSH32 0x8C379A000000000000000000000000000000000000000000000000000000000 DUP2 MSTORE PUSH1 0x4 ADD PUSH2 0x34B SWAP1 PUSH2 0x17AD JUMP JUMPDEST PUSH1 0x40 MLOAD DUP1 SWAP2 SUB SWAP1 REVERT JUMPDEST PUSH1 0x0 JUMPDEST DUP3 DUP3 SWAP1 POP DUP2 LT ISZERO PUSH2 0x3ED JUMPI PUSH1 0x1 DUP1 PUSH1 0x0 DUP6 DUP6 DUP6 DUP2 DUP2 LT PUSH2 0x37A JUMPI PUSH2 0x379 PUSH2 0x17CD JUMP JUMPDEST JUMPDEST SWAP1 POP PUSH1 0x20 MUL ADD PUSH1 0x20 DUP2 ADD SWAP1 PUSH2 0x38F SWAP2 SWAP1 PUSH2 0x1557 JUMP JUMPDEST PUSH20 0xFFFFFFFFFFFFFFFFFFFFFFFFFFFFFFFFFFFFFFFF AND PUSH20 0xFFFFFFFFFFFFFFFFFFFFFFFFFFFFFFFFFFFFFFFF AND DUP2 MSTORE PUSH1 0x20 ADD SWAP1 DUP2 MSTORE PUSH1 0x20 ADD PUSH1 0x0 KECCAK256 PUSH1 0x0 PUSH2 0x100 EXP DUP2 SLOAD DUP2 PUSH1 0xFF MUL NOT AND SWAP1 DUP4 ISZERO ISZERO MUL OR SWAP1 SSTORE POP DUP1 DUP1 PUSH1 0x1 ADD SWAP2 POP POP PUSH2 0x357 JUMP JUMPDEST POP POP POP JUMP JUMPDEST PUSH1 0x0 DUP1 SLOAD SWAP1 PUSH2 0x100 EXP SWAP1 DIV PUSH20 0xFFFFFFFFFFFFFFFFFFFFFFFFFFFFFFFFFFFFFFFF AND PUSH20 0xFFFFFFFFFFFFFFFFFFFFFFFFFFFFFFFFFFFFFFFF AND CALLER PUSH20 0xFFFFFFFFFFFFFFFFFFFFFFFFFFFFFFFFFFFFFFFF AND EQ PUSH2 0x480 JUMPI PUSH1 0x40 MLOAD PUSH32 0x8C379A000000000000000000000000000000000000000000000000000000000 DUP2 MSTORE PUSH1 0x4 ADD PUSH2 0x477 SWAP1 PUSH2 0x17AD JUMP JUMPDEST PUSH1 0x40 MLOAD DUP1 SWAP2 SUB SWAP1 REVERT JUMPDEST PUSH1 0x0 PUSH1 0x1 PUSH1 0x0 DUP4 PUSH20 0xFFFFFFFFFFFFFFFFFFFFFFFFFFFFFFFFFFFFFFFF AND PUSH20 0xFFFFFFFFFFFFFFFFFFFFFFFFFFFFFFFFFFFFFFFF AND DUP2 MSTORE PUSH1 0x20 ADD SWAP1 DUP2 MSTORE PUSH1 0x20 ADD PUSH1 0x0 KECCAK256 PUSH1 0x0 PUSH2 0x100 EXP DUP2 SLOAD DUP2 PUSH1 0xFF MUL NOT AND SWAP1 DUP4 ISZERO ISZERO MUL OR SWAP1 SSTORE POP POP JUMP JUMPDEST PUSH1 0x0 DUP1 SLOAD SWAP1 PUSH2 0x100 EXP SWAP1 DIV PUSH20 0xFFFFFFFFFFFFFFFFFFFFFFFFFFFFFFFFFFFFFFFF AND DUP2 JUMP JUMPDEST PUSH1 0x1 PUSH1 0x20 MSTORE DUP1 PUSH1 0x0 MSTORE PUSH1 0x40 PUSH1 0x0 KECCAK256 PUSH1 0x0 SWAP2 POP SLOAD SWAP1 PUSH2 0x100 EXP SWAP1 DIV PUSH1 0xFF AND DUP2 JUMP JUMPDEST PUSH1 0x60 PUSH1 0x6 PUSH1 0x0 DUP4 DUP2 MSTORE PUSH1 0x20 ADD SWAP1 DUP2 MSTORE PUSH1 0x20 ADD PUSH1 0x0 KECCAK256 DUP1 SLOAD PUSH2 0x53F SWAP1 PUSH2 0x182B JUMP JUMPDEST DUP1 PUSH1 0x1F ADD PUSH1 0x20 DUP1 SWAP2 DIV MUL PUSH1 0x20 ADD PUSH1 0x40 MLOAD SWAP1 DUP2 ADD PUSH1 0x40 MSTORE DUP1 SWAP3 SWAP2 SWAP1 DUP2 DUP2 MSTORE PUSH1 0x20 ADD DUP3 DUP1 SLOAD PUSH2 0x56B SWAP1 PUSH2 0x182B JUMP JUMPDEST DUP1 ISZERO PUSH2 0x5B8 JUMPI DUP1 PUSH1 0x1F LT PUSH2 0x58D JUMPI PUSH2 0x100 DUP1 DUP4 SLOAD DIV MUL DUP4 MSTORE SWAP2 PUSH1 0x20 ADD SWAP2 PUSH2 0x5B8 JUMP JUMPDEST DUP3 ADD SWAP2 SWAP1 PUSH1 0x0 MSTORE PUSH1 0x20 PUSH1 0x0 KECCAK256 SWAP1 JUMPDEST DUP2 SLOAD DUP2 MSTORE SWAP1 PUSH1 0x1 ADD SWAP1 PUSH1 0x20 ADD DUP1 DUP4 GT PUSH2 0x59B JUMPI DUP3 SWAP1 SUB PUSH1 0x1F AND DUP3 ADD SWAP2 JUMPDEST POP POP POP POP POP SWAP1 POP SWAP2 SWAP1 POP JUMP JUMPDEST PUSH1 0x5 PUSH1 0x0 DUP4 DUP2 MSTORE PUSH1 0x20 ADD SWAP1 DUP2 MSTORE PUSH1 0x20 ADD PUSH1 0x0 KECCAK256 PUSH1 0x0 CALLER PUSH20 0xFFFFFFFFFFFFFFFFFFFFFFFFFFFFFFFFFFFFFFFF AND PUSH20 0xFFFFFFFFFFFFFFFFFFFFFFFFFFFFFFFFFFFFFFFF AND DUP2 MSTORE PUSH1 0x20 ADD SWAP1 DUP2 MSTORE PUSH1 0x20 ADD PUSH1 0x0 KECCAK256 PUSH1 0x0 SWAP1 SLOAD SWAP1 PUSH2 0x100 EXP SWAP1 DIV PUSH1 0xFF AND ISZERO PUSH2 0x662 JUMPI PUSH1 0x40 MLOAD PUSH32 0x8C379A000000000000000000000000000000000000000000000000000000000 DUP2 MSTORE PUSH1 0x4 ADD PUSH2 0x659 SWAP1 PUSH2 0x18A8 JUMP JUMPDEST PUSH1 0x40 MLOAD DUP1 SWAP2 SUB SWAP1 REVERT JUMPDEST PUSH1 0x0 DUP2 PUSH1 0x2 DUP2 GT ISZERO PUSH2 0x677 JUMPI PUSH2 0x676 PUSH2 0x18C8 JUMP JUMPDEST JUMPDEST LT ISZERO DUP1 ISZERO PUSH2 0x698 JUMPI POP PUSH1 0x2 DUP2 PUSH1 0x2 DUP2 GT ISZERO PUSH2 0x695 JUMPI PUSH2 0x694 PUSH2 0x18C8 JUMP JUMPDEST JUMPDEST GT ISZERO JUMPDEST PUSH2 0x6D7 JUMPI PUSH1 0x40 MLOAD PUSH32 0x8C379A000000000000000000000000000000000000000000000000000000000 DUP2 MSTORE PUSH1 0x4 ADD PUSH2 0x6CE SWAP1 PUSH2 0x1943 JUMP JUMPDEST PUSH1 0x40 MLOAD DUP1 SWAP2 SUB SWAP1 REVERT JUMPDEST PUSH1 0x1 PUSH1 0x5 PUSH1 0x0 DUP5 DUP2 MSTORE PUSH1 0x20 ADD SWAP1 DUP2 MSTORE PUSH1 0x20 ADD PUSH1 0x0 KECCAK256 PUSH1 0x0 CALLER PUSH20 0xFFFFFFFFFFFFFFFFFFFFFFFFFFFFFFFFFFFFFFFF AND PUSH20 0xFFFFFFFFFFFFFFFFFFFFFFFFFFFFFFFFFFFFFFFF AND DUP2 MSTORE PUSH1 0x20 ADD SWAP1 DUP2 MSTORE PUSH1 0x20 ADD PUSH1 0x0 KECCAK256 PUSH1 0x0 PUSH2 0x100 EXP DUP2 SLOAD DUP2 PUSH1 0xFF MUL NOT AND SWAP1 DUP4 ISZERO ISZERO MUL OR SWAP1 SSTORE POP PUSH1 0x0 PUSH1 0x2 DUP2 GT ISZERO PUSH2 0x754 JUMPI PUSH2 0x753 PUSH2 0x18C8 JUMP JUMPDEST JUMPDEST DUP2 PUSH1 0x2 DUP2 GT ISZERO PUSH2 0x767 JUMPI PUSH2 0x766 PUSH2 0x18C8 JUMP JUMPDEST JUMPDEST SUB PUSH2 0x79A JUMPI PUSH1 0x7 PUSH1 0x0 DUP4 DUP2 MSTORE PUSH1 0x20 ADD SWAP1 DUP2 MSTORE PUSH1 0x20 ADD PUSH1 0x0 KECCAK256 PUSH1 0x0 DUP2 SLOAD DUP1 SWAP3 SWAP2 SWAP1 PUSH2 0x790 SWAP1 PUSH2 0x1992 JUMP JUMPDEST SWAP2 SWAP1 POP SSTORE POP PUSH2 0x81F JUMP JUMPDEST PUSH1 0x1 PUSH1 0x2 DUP2 GT ISZERO PUSH2 0x7AE JUMPI PUSH2 0x7AD PUSH2 0x18C8 JUMP JUMPDEST JUMPDEST DUP2 PUSH1 0x2 DUP2 GT ISZERO PUSH2 0x7C1 JUMPI PUSH2 0x7C0 PUSH2 0x18C8 JUMP JUMPDEST JUMPDEST SUB PUSH2 0x7F4 JUMPI PUSH1 0x8 PUSH1 0x0 DUP4 DUP2 MSTORE PUSH1 0x20 ADD SWAP1 DUP2 MSTORE PUSH1 0x20 ADD PUSH1 0x0 KECCAK256 PUSH1 0x0 DUP2 SLOAD DUP1 SWAP3 SWAP2 SWAP1 PUSH2 0x7EA SWAP1 PUSH2 0x1992 JUMP JUMPDEST SWAP2 SWAP1 POP SSTORE POP PUSH2 0x81E JUMP JUMPDEST PUSH1 0x9 PUSH1 0x0 DUP4 DUP2 MSTORE PUSH1 0x20 ADD SWAP1 DUP2 MSTORE PUSH1 0x20 ADD PUSH1 0x0 KECCAK256 PUSH1 0x0 DUP2 SLOAD DUP1 SWAP3 SWAP2 SWAP1 PUSH2 0x818 SWAP1 PUSH2 0x1992 JUMP JUMPDEST SWAP2 SWAP1 POP SSTORE POP JUMPDEST JUMPDEST POP POP JUMP JUMPDEST PUSH1 0x0 DUP1 SLOAD SWAP1 PUSH2 0x100 EXP SWAP1 DIV PUSH20 0xFFFFFFFFFFFFFFFFFFFFFFFFFFFFFFFFFFFFFFFF AND PUSH20 0xFFFFFFFFFFFFFFFFFFFFFFFFFFFFFFFFFFFFFFFF AND CALLER PUSH20 0xFFFFFFFFFFFFFFFFFFFFFFFFFFFFFFFFFFFFFFFF AND EQ PUSH2 0x8B1 JUMPI PUSH1 0x40 MLOAD PUSH32 0x8C379A000000000000000000000000000000000000000000000000000000000 DUP2 MSTORE PUSH1 0x4 ADD PUSH2 0x8A8 SWAP1 PUSH2 0x17AD JUMP JUMPDEST PUSH1 0x40 MLOAD DUP1 SWAP2 SUB SWAP1 REVERT JUMPDEST PUSH1 0x0 PUSH1 0x6 PUSH1 0x0 DUP4 DUP2 MSTORE PUSH1 0x20 ADD SWAP1 DUP2 MSTORE PUSH1 0x20 ADD PUSH1 0x0 KECCAK256 DUP1 SLOAD PUSH2 0x8D1 SWAP1 PUSH2 0x182B JUMP JUMPDEST SWAP1 POP GT PUSH2 0x913 JUMPI PUSH1 0x40 MLOAD PUSH32 0x8C379A000000000000000000000000000000000000000000000000000000000 DUP2 MSTORE PUSH1 0x4 ADD PUSH2 0x90A SWAP1 PUSH2 0x1A26 JUMP JUMPDEST PUSH1 0x40 MLOAD DUP1 SWAP2 SUB SWAP1 REVERT JUMPDEST PUSH1 0x0 PUSH1 0x7 PUSH1 0x0 DUP4 DUP2 MSTORE PUSH1 0x20 ADD SWAP1 DUP2 MSTORE PUSH1 0x20 ADD PUSH1 0x0 KECCAK256 SLOAD SWAP1 POP PUSH1 0x0 PUSH1 0x8 PUSH1 0x0 DUP5 DUP2 MSTORE PUSH1 0x20 ADD SWAP1 DUP2 MSTORE PUSH1 0x20 ADD PUSH1 0x0 KECCAK256 SLOAD SWAP1 POP PUSH1 0x0 PUSH1 0x9 PUSH1 0x0 DUP6 DUP2 MSTORE PUSH1 0x20 ADD SWAP1 DUP2 MSTORE PUSH1 0x20 ADD PUSH1 0x0 KECCAK256 SLOAD SWAP1 POP PUSH1 0x60 DUP3 DUP5 GT DUP1 ISZERO PUSH2 0x96B JUMPI POP DUP2 DUP5 GT JUMPDEST ISZERO PUSH2 0x9B5 JUMPI PUSH2 0x978 PUSH2 0xF19 JUMP JUMPDEST PUSH1 0x40 MLOAD DUP1 PUSH1 0x40 ADD PUSH1 0x40 MSTORE DUP1 PUSH1 0x1E DUP2 MSTORE PUSH1 0x20 ADD PUSH32 0x4C61207265736F6C7574696F6E20612065746520617070726F757665652E0000 DUP2 MSTORE POP SWAP1 POP PUSH2 0xA5F JUMP JUMPDEST DUP4 DUP4 GT DUP1 ISZERO PUSH2 0x9C3 JUMPI POP DUP2 DUP4 GT JUMPDEST ISZERO PUSH2 0xA05 JUMPI PUSH1 0x40 MLOAD DUP1 PUSH1 0x40 ADD PUSH1 0x40 MSTORE DUP1 PUSH1 0x1C DUP2 MSTORE PUSH1 0x20 ADD PUSH32 0x4C61207265736F6C7574696F6E2061206574652072656A657465652E00000000 DUP2 MSTORE POP SWAP1 POP PUSH2 0xA5E JUMP JUMPDEST DUP4 DUP3 GT DUP1 ISZERO PUSH2 0xA13 JUMPI POP DUP3 DUP3 GT JUMPDEST ISZERO PUSH2 0xA38 JUMPI PUSH1 0x40 MLOAD DUP1 PUSH1 0x80 ADD PUSH1 0x40 MSTORE DUP1 PUSH1 0x47 DUP2 MSTORE PUSH1 0x20 ADD PUSH2 0x2444 PUSH1 0x47 SWAP2 CODECOPY SWAP1 POP PUSH2 0xA5D JUMP JUMPDEST PUSH1 0x40 MLOAD DUP1 PUSH1 0x80 ADD PUSH1 0x40 MSTORE DUP1 PUSH1 0x5A DUP2 MSTORE PUSH1 0x20 ADD PUSH2 0x1F3F PUSH1 0x5A SWAP2 CODECOPY SWAP1 POP PUSH2 0xA5C DUP6 PUSH2 0x1233 JUMP JUMPDEST JUMPDEST JUMPDEST JUMPDEST PUSH32 0x74EAB9E861E52C08183E9FB8DA301C8F9BAEB5D20A40DDD77179864D33E486E6 DUP6 DUP6 DUP6 DUP6 DUP6 PUSH1 0x40 MLOAD PUSH2 0xA96 SWAP6 SWAP5 SWAP4 SWAP3 SWAP2 SWAP1 PUSH2 0x1A46 JUMP JUMPDEST PUSH1 0x40 MLOAD DUP1 SWAP2 SUB SWAP1 LOG1 POP POP POP POP POP JUMP JUMPDEST PUSH1 0x0 DUP1 SLOAD SWAP1 PUSH2 0x100 EXP SWAP1 DIV PUSH20 0xFFFFFFFFFFFFFFFFFFFFFFFFFFFFFFFFFFFFFFFF AND PUSH20 0xFFFFFFFFFFFFFFFFFFFFFFFFFFFFFFFFFFFFFFFF AND CALLER PUSH20 0xFFFFFFFFFFFFFFFFFFFFFFFFFFFFFFFFFFFFFFFF AND EQ PUSH2 0xB33 JUMPI PUSH1 0x40 MLOAD PUSH32 0x8C379A000000000000000000000000000000000000000000000000000000000 DUP2 MSTORE PUSH1 0x4 ADD PUSH2 0xB2A SWAP1 PUSH2 0x17AD JUMP JUMPDEST PUSH1 0x40 MLOAD DUP1 SWAP2 SUB SWAP1 REVERT JUMPDEST PUSH2 0xB54 PUSH1 0x40 MLOAD DUP1 PUSH1 0xA0 ADD PUSH1 0x40 MSTORE DUP1 PUSH1 0x7B DUP2 MSTORE PUSH1 0x20 ADD PUSH2 0x229D PUSH1 0x7B SWAP2 CODECOPY PUSH2 0x1367 JUMP JUMPDEST PUSH2 0xB75 PUSH1 0x40 MLOAD DUP1 PUSH1 0xA0 ADD PUSH1 0x40 MSTORE DUP1 PUSH1 0x76 DUP2 MSTORE PUSH1 0x20 ADD PUSH2 0x2157 PUSH1 0x76 SWAP2 CODECOPY PUSH2 0x1367 JUMP JUMPDEST PUSH2 0xB96 PUSH1 0x40 MLOAD DUP1 PUSH1 0xA0 ADD PUSH1 0x40 MSTORE DUP1 PUSH1 0x73 DUP2 MSTORE PUSH1 0x20 ADD PUSH2 0x1F99 PUSH1 0x73 SWAP2 CODECOPY PUSH2 0x1367 JUMP JUMPDEST PUSH2 0xBB7 PUSH1 0x40 MLOAD DUP1 PUSH1 0xA0 ADD PUSH1 0x40 MSTORE DUP1 PUSH1 0x66 DUP2 MSTORE PUSH1 0x20 ADD PUSH2 0x2318 PUSH1 0x66 SWAP2 CODECOPY PUSH2 0x1367 JUMP JUMPDEST PUSH2 0xBD8 PUSH1 0x40 MLOAD DUP1 PUSH1 0xA0 ADD PUSH1 0x40 MSTORE DUP1 PUSH1 0x78 DUP2 MSTORE PUSH1 0x20 ADD PUSH2 0x20DF PUSH1 0x78 SWAP2 CODECOPY PUSH2 0x1367 JUMP JUMPDEST PUSH2 0xBF9 PUSH1 0x40 MLOAD DUP1 PUSH1 0x80 ADD PUSH1 0x40 MSTORE DUP1 PUSH1 0x57 DUP2 MSTORE PUSH1 0x20 ADD PUSH2 0x200C PUSH1 0x57 SWAP2 CODECOPY PUSH2 0x1367 JUMP JUMPDEST PUSH2 0xC1A PUSH1 0x40 MLOAD DUP1 PUSH1 0xA0 ADD PUSH1 0x40 MSTORE DUP1 PUSH1 0x73 DUP2 MSTORE PUSH1 0x20 ADD PUSH2 0x23D1 PUSH1 0x73 SWAP2 CODECOPY PUSH2 0x1367 JUMP JUMPDEST PUSH2 0xC3B PUSH1 0x40 MLOAD DUP1 PUSH1 0xA0 ADD PUSH1 0x40 MSTORE DUP1 PUSH1 0x73 DUP2 MSTORE PUSH1 0x20 ADD PUSH2 0x1ECC PUSH1 0x73 SWAP2 CODECOPY PUSH2 0x1367 JUMP JUMPDEST PUSH2 0xC5C PUSH1 0x40 MLOAD DUP1 PUSH1 0xA0 ADD PUSH1 0x40 MSTORE DUP1 PUSH1 0x7C DUP2 MSTORE PUSH1 0x20 ADD PUSH2 0x2063 PUSH1 0x7C SWAP2 CODECOPY PUSH2 0x1367 JUMP JUMPDEST PUSH2 0xC7D PUSH1 0x40 MLOAD DUP1 PUSH1 0xA0 ADD PUSH1 0x40 MSTORE DUP1 PUSH1 0x6A DUP2 MSTORE PUSH1 0x20 ADD PUSH2 0x21CD PUSH1 0x6A SWAP2 CODECOPY PUSH2 0x1367 JUMP JUMPDEST PUSH2 0xC9E PUSH1 0x40 MLOAD DUP1 PUSH1 0xA0 ADD PUSH1 0x40 MSTORE DUP1 PUSH1 0x76 DUP2 MSTORE PUSH1 0x20 ADD PUSH2 0x1E56 PUSH1 0x76 SWAP2 CODECOPY PUSH2 0x1367 JUMP JUMPDEST PUSH2 0xCBF PUSH1 0x40 MLOAD DUP1 PUSH1 0xA0 ADD PUSH1 0x40 MSTORE DUP1 PUSH1 0x66 DUP2 MSTORE PUSH1 0x20 ADD PUSH2 0x2237 PUSH1 0x66 SWAP2 CODECOPY PUSH2 0x1367 JUMP JUMPDEST JUMP JUMPDEST PUSH1 0x0 DUP1 SLOAD SWAP1 PUSH2 0x100 EXP SWAP1 DIV PUSH20 0xFFFFFFFFFFFFFFFFFFFFFFFFFFFFFFFFFFFFFFFF AND PUSH20 0xFFFFFFFFFFFFFFFFFFFFFFFFFFFFFFFFFFFFFFFF AND CALLER PUSH20 0xFFFFFFFFFFFFFFFFFFFFFFFFFFFFFFFFFFFFFFFF AND EQ PUSH2 0xD4F JUMPI PUSH1 0x40 MLOAD PUSH32 0x8C379A000000000000000000000000000000000000000000000000000000000 DUP2 MSTORE PUSH1 0x4 ADD PUSH2 0xD46 SWAP1 PUSH2 0x17AD JUMP JUMPDEST PUSH1 0x40 MLOAD DUP1 SWAP2 SUB SWAP1 REVERT JUMPDEST PUSH1 0x0 PUSH20 0xFFFFFFFFFFFFFFFFFFFFFFFFFFFFFFFFFFFFFFFF AND DUP2 PUSH20 0xFFFFFFFFFFFFFFFFFFFFFFFFFFFFFFFFFFFFFFFF AND SUB PUSH2 0xDBE JUMPI PUSH1 0x40 MLOAD PUSH32 0x8C379A000000000000000000000000000000000000000000000000000000000 DUP2 MSTORE PUSH1 0x4 ADD PUSH2 0xDB5 SWAP1 PUSH2 0x1AEC JUMP JUMPDEST PUSH1 0x40 MLOAD DUP1 SWAP2 SUB SWAP1 REVERT JUMPDEST DUP1 PUSH20 0xFFFFFFFFFFFFFFFFFFFFFFFFFFFFFFFFFFFFFFFF AND PUSH1 0x0 DUP1 SLOAD SWAP1 PUSH2 0x100 EXP SWAP1 DIV PUSH20 0xFFFFFFFFFFFFFFFFFFFFFFFFFFFFFFFFFFFFFFFF AND PUSH20 0xFFFFFFFFFFFFFFFFFFFFFFFFFFFFFFFFFFFFFFFF AND PUSH32 0x8BE0079C531659141344CD1FD0A4F28419497F9722A3DAAFE3B4186F6B6457E0 PUSH1 0x40 MLOAD PUSH1 0x40 MLOAD DUP1 SWAP2 SUB SWAP1 LOG3 DUP1 PUSH1 0x0 DUP1 PUSH2 0x100 EXP DUP2 SLOAD DUP2 PUSH20 0xFFFFFFFFFFFFFFFFFFFFFFFFFFFFFFFFFFFFFFFF MUL NOT AND SWAP1 DUP4 PUSH20 0xFFFFFFFFFFFFFFFFFFFFFFFFFFFFFFFFFFFFFFFF AND MUL OR SWAP1 SSTORE POP POP JUMP JUMPDEST PUSH1 0x0 DUP1 PUSH1 0x0 DUP1 DUP5 GT DUP1 ISZERO PUSH2 0xE91 JUMPI POP PUSH1 0x4 SLOAD DUP5 GT ISZERO JUMPDEST PUSH2 0xED0 JUMPI PUSH1 0x40 MLOAD PUSH32 0x8C379A000000000000000000000000000000000000000000000000000000000 DUP2 MSTORE PUSH1 0x4 ADD PUSH2 0xEC7 SWAP1 PUSH2 0x1B58 JUMP JUMPDEST PUSH1 0x40 MLOAD DUP1 SWAP2 SUB SWAP1 REVERT JUMPDEST PUSH1 0x7 PUSH1 0x0 DUP6 DUP2 MSTORE PUSH1 0x20 ADD SWAP1 DUP2 MSTORE PUSH1 0x20 ADD PUSH1 0x0 KECCAK256 SLOAD SWAP3 POP PUSH1 0x8 PUSH1 0x0 DUP6 DUP2 MSTORE PUSH1 0x20 ADD SWAP1 DUP2 MSTORE PUSH1 0x20 ADD PUSH1 0x0 KECCAK256 SLOAD SWAP2 POP PUSH1 0x9 PUSH1 0x0 DUP6 DUP2 MSTORE PUSH1 0x20 ADD SWAP1 DUP2 MSTORE PUSH1 0x20 ADD PUSH1 0x0 KECCAK256 SLOAD SWAP1 POP SWAP2 SWAP4 SWAP1 SWAP3 POP JUMP JUMPDEST PUSH1 0x0 PUSH20 0xFFFFFFFFFFFFFFFFFFFFFFFFFFFFFFFFFFFFFFFF AND PUSH1 0x2 PUSH1 0x0 SWAP1 SLOAD SWAP1 PUSH2 0x100 EXP SWAP1 DIV PUSH20 0xFFFFFFFFFFFFFFFFFFFFFFFFFFFFFFFFFFFFFFFF AND PUSH20 0xFFFFFFFFFFFFFFFFFFFFFFFFFFFFFFFFFFFFFFFF AND EQ DUP1 ISZERO PUSH2 0xF9E JUMPI POP PUSH1 0x8 PUSH1 0x0 PUSH1 0x1 DUP2 MSTORE PUSH1 0x20 ADD SWAP1 DUP2 MSTORE PUSH1 0x20 ADD PUSH1 0x0 KECCAK256 SLOAD PUSH1 0x7 PUSH1 0x0 PUSH1 0x1 DUP2 MSTORE PUSH1 0x20 ADD SWAP1 DUP2 MSTORE PUSH1 0x20 ADD PUSH1 0x0 KECCAK256 SLOAD GT JUMPDEST DUP1 ISZERO PUSH2 0xFD1 JUMPI POP PUSH1 0x9 PUSH1 0x0 PUSH1 0x1 DUP2 MSTORE PUSH1 0x20 ADD SWAP1 DUP2 MSTORE PUSH1 0x20 ADD PUSH1 0x0 KECCAK256 SLOAD PUSH1 0x7 PUSH1 0x0 PUSH1 0x1 DUP2 MSTORE PUSH1 0x20 ADD SWAP1 DUP2 MSTORE PUSH1 0x20 ADD PUSH1 0x0 KECCAK256 SLOAD GT JUMPDEST ISZERO PUSH2 0x10A5 JUMPI PUSH20 0xEE868457836BC3F2C05F7AD7F254D807EA4EA575 PUSH1 0x2 PUSH1 0x0 PUSH2 0x100 EXP DUP2 SLOAD DUP2 PUSH20 0xFFFFFFFFFFFFFFFFFFFFFFFFFFFFFFFFFFFFFFFF MUL NOT AND SWAP1 DUP4 PUSH20 0xFFFFFFFFFFFFFFFFFFFFFFFFFFFFFFFFFFFFFFFF AND MUL OR SWAP1 SSTORE POP PUSH1 0x0 PUSH1 0x40 MLOAD DUP1 PUSH1 0x80 ADD PUSH1 0x40 MSTORE DUP1 PUSH1 0x53 DUP2 MSTORE PUSH1 0x20 ADD PUSH2 0x237E PUSH1 0x53 SWAP2 CODECOPY SWAP1 POP PUSH32 0xBD9ED5D68679B2B11D557820B1766CB8B8D7D8B3D60422F294753D50C856D62B PUSH1 0x2 PUSH1 0x0 SWAP1 SLOAD SWAP1 PUSH2 0x100 EXP SWAP1 DIV PUSH20 0xFFFFFFFFFFFFFFFFFFFFFFFFFFFFFFFFFFFFFFFF AND DUP3 PUSH1 0x40 MLOAD PUSH2 0x109B SWAP3 SWAP2 SWAP1 PUSH2 0x1B78 JUMP JUMPDEST PUSH1 0x40 MLOAD DUP1 SWAP2 SUB SWAP1 LOG1 POP JUMPDEST PUSH1 0x0 PUSH20 0xFFFFFFFFFFFFFFFFFFFFFFFFFFFFFFFFFFFFFFFF AND PUSH1 0x3 PUSH1 0x0 SWAP1 SLOAD SWAP1 PUSH2 0x100 EXP SWAP1 DIV PUSH20 0xFFFFFFFFFFFFFFFFFFFFFFFFFFFFFFFFFFFFFFFF AND PUSH20 0xFFFFFFFFFFFFFFFFFFFFFFFFFFFFFFFFFFFFFFFF AND EQ DUP1 ISZERO PUSH2 0x112A JUMPI POP PUSH1 0x8 PUSH1 0x0 PUSH1 0x2 DUP2 MSTORE PUSH1 0x20 ADD SWAP1 DUP2 MSTORE PUSH1 0x20 ADD PUSH1 0x0 KECCAK256 SLOAD PUSH1 0x7 PUSH1 0x0 PUSH1 0x2 DUP2 MSTORE PUSH1 0x20 ADD SWAP1 DUP2 MSTORE PUSH1 0x20 ADD PUSH1 0x0 KECCAK256 SLOAD GT JUMPDEST DUP1 ISZERO PUSH2 0x115D JUMPI POP PUSH1 0x9 PUSH1 0x0 PUSH1 0x2 DUP2 MSTORE PUSH1 0x20 ADD SWAP1 DUP2 MSTORE PUSH1 0x20 ADD PUSH1 0x0 KECCAK256 SLOAD PUSH1 0x7 PUSH1 0x0 PUSH1 0x2 DUP2 MSTORE PUSH1 0x20 ADD SWAP1 DUP2 MSTORE PUSH1 0x20 ADD PUSH1 0x0 KECCAK256 SLOAD GT JUMPDEST ISZERO PUSH2 0x1231 JUMPI PUSH20 0xEE868457836BC3F2C05F7AD7F254D807EA4EA575 PUSH1 0x3 PUSH1 0x0 PUSH2 0x100 EXP DUP2 SLOAD DUP2 PUSH20 0xFFFFFFFFFFFFFFFFFFFFFFFFFFFFFFFFFFFFFFFF MUL NOT AND SWAP1 DUP4 PUSH20 0xFFFFFFFFFFFFFFFFFFFFFFFFFFFFFFFFFFFFFFFF AND MUL OR SWAP1 SSTORE POP PUSH1 0x0 PUSH1 0x40 MLOAD DUP1 PUSH1 0x80 ADD PUSH1 0x40 MSTORE DUP1 PUSH1 0x54 DUP2 MSTORE PUSH1 0x20 ADD PUSH2 0x248B PUSH1 0x54 SWAP2 CODECOPY SWAP1 POP PUSH32 0x5068908B9A4035F4209543F871C98EB4E32143193EEA44C8CDEFBA5A06A2FC5 PUSH1 0x3 PUSH1 0x0 SWAP1 SLOAD SWAP1 PUSH2 0x100 EXP SWAP1 DIV PUSH20 0xFFFFFFFFFFFFFFFFFFFFFFFFFFFFFFFFFFFFFFFF AND DUP3 PUSH1 0x40 MLOAD PUSH2 0x1227 SWAP3 SWAP2 SWAP1 PUSH2 0x1B78 JUMP JUMPDEST PUSH1 0x40 MLOAD DUP1 SWAP2 SUB SWAP1 LOG1 POP JUMPDEST JUMP JUMPDEST PUSH1 0x0 PUSH1 0x6 PUSH1 0x0 DUP4 DUP2 MSTORE PUSH1 0x20 ADD SWAP1 DUP2 MSTORE PUSH1 0x20 ADD PUSH1 0x0 KECCAK256 DUP1 SLOAD PUSH2 0x1253 SWAP1 PUSH2 0x182B JUMP JUMPDEST SWAP1 POP GT PUSH2 0x1295 JUMPI PUSH1 0x40 MLOAD PUSH32 0x8C379A000000000000000000000000000000000000000000000000000000000 DUP2 MSTORE PUSH1 0x4 ADD PUSH2 0x128C SWAP1 PUSH2 0x1A26 JUMP JUMPDEST PUSH1 0x40 MLOAD DUP1 SWAP2 SUB SWAP1 REVERT JUMPDEST PUSH1 0x0 PUSH1 0x7 PUSH1 0x0 DUP4 DUP2 MSTORE PUSH1 0x20 ADD SWAP1 DUP2 MSTORE PUSH1 0x20 ADD PUSH1 0x0 KECCAK256 DUP2 SWAP1 SSTORE POP PUSH1 0x0 PUSH1 0x8 PUSH1 0x0 DUP4 DUP2 MSTORE PUSH1 0x20 ADD SWAP1 DUP2 MSTORE PUSH1 0x20 ADD PUSH1 0x0 KECCAK256 DUP2 SWAP1 SSTORE POP PUSH1 0x0 PUSH1 0x9 PUSH1 0x0 DUP4 DUP2 MSTORE PUSH1 0x20 ADD SWAP1 DUP2 MSTORE PUSH1 0x20 ADD PUSH1 0x0 KECCAK256 DUP2 SWAP1 SSTORE POP PUSH1 0x0 JUMPDEST PUSH1 0x4 SLOAD DUP2 LT ISZERO PUSH2 0x1363 JUMPI PUSH1 0x0 PUSH1 0x5 PUSH1 0x0 DUP5 DUP2 MSTORE PUSH1 0x20 ADD SWAP1 DUP2 MSTORE PUSH1 0x20 ADD PUSH1 0x0 KECCAK256 PUSH1 0x0 CALLER PUSH20 0xFFFFFFFFFFFFFFFFFFFFFFFFFFFFFFFFFFFFFFFF AND PUSH20 0xFFFFFFFFFFFFFFFFFFFFFFFFFFFFFFFFFFFFFFFF AND DUP2 MSTORE PUSH1 0x20 ADD SWAP1 DUP2 MSTORE PUSH1 0x20 ADD PUSH1 0x0 KECCAK256 PUSH1 0x0 PUSH2 0x100 EXP DUP2 SLOAD DUP2 PUSH1 0xFF MUL NOT AND SWAP1 DUP4 ISZERO ISZERO MUL OR SWAP1 SSTORE POP DUP1 DUP1 PUSH1 0x1 ADD SWAP2 POP POP PUSH2 0x12E3 JUMP JUMPDEST POP POP JUMP JUMPDEST PUSH1 0x4 PUSH1 0x0 DUP2 SLOAD DUP1 SWAP3 SWAP2 SWAP1 PUSH2 0x137A SWAP1 PUSH2 0x1992 JUMP JUMPDEST SWAP2 SWAP1 POP SSTORE POP DUP1 PUSH1 0x6 PUSH1 0x0 PUSH1 0x4 SLOAD DUP2 MSTORE PUSH1 0x20 ADD SWAP1 DUP2 MSTORE PUSH1 0x20 ADD PUSH1 0x0 KECCAK256 SWAP1 DUP2 PUSH2 0x13A1 SWAP2 SWAP1 PUSH2 0x1D83 JUMP JUMPDEST POP PUSH1 0x4 SLOAD PUSH32 0x14A9277804B56A381D8E536E29B9ED92B395E36216ED9D175D8BC6D706BDA82C DUP3 PUSH1 0x40 MLOAD PUSH2 0x13D4 SWAP2 SWAP1 PUSH2 0x16A3 JUMP JUMPDEST PUSH1 0x40 MLOAD DUP1 SWAP2 SUB SWAP1 LOG2 POP JUMP JUMPDEST PUSH1 0x0 PUSH20 0xFFFFFFFFFFFFFFFFFFFFFFFFFFFFFFFFFFFFFFFF DUP3 AND SWAP1 POP SWAP2 SWAP1 POP JUMP JUMPDEST PUSH1 0x0 PUSH2 0x140A DUP3 PUSH2 0x13DF JUMP JUMPDEST SWAP1 POP SWAP2 SWAP1 POP JUMP JUMPDEST PUSH2 0x141A DUP2 PUSH2 0x13FF JUMP JUMPDEST DUP3 MSTORE POP POP JUMP JUMPDEST PUSH1 0x0 PUSH1 0x20 DUP3 ADD SWAP1 POP PUSH2 0x1435 PUSH1 0x0 DUP4 ADD DUP5 PUSH2 0x1411 JUMP JUMPDEST SWAP3 SWAP2 POP POP JUMP JUMPDEST PUSH1 0x0 DUP2 SWAP1 POP SWAP2 SWAP1 POP JUMP JUMPDEST PUSH2 0x144E DUP2 PUSH2 0x143B JUMP JUMPDEST DUP3 MSTORE POP POP JUMP JUMPDEST PUSH1 0x0 PUSH1 0x20 DUP3 ADD SWAP1 POP PUSH2 0x1469 PUSH1 0x0 DUP4 ADD DUP5 PUSH2 0x1445 JUMP JUMPDEST SWAP3 SWAP2 POP POP JUMP JUMPDEST PUSH1 0x0 DUP1 REVERT JUMPDEST PUSH1 0x0 DUP1 REVERT JUMPDEST PUSH1 0x0 DUP1 REVERT JUMPDEST PUSH1 0x0 DUP1 REVERT JUMPDEST PUSH1 0x0 DUP1 REVERT JUMPDEST PUSH1 0x0 DUP1 DUP4 PUSH1 0x1F DUP5 ADD SLT PUSH2 0x149E JUMPI PUSH2 0x149D PUSH2 0x1479 JUMP JUMPDEST JUMPDEST DUP3 CALLDATALOAD SWAP1 POP PUSH8 0xFFFFFFFFFFFFFFFF DUP2 GT ISZERO PUSH2 0x14BB JUMPI PUSH2 0x14BA PUSH2 0x147E JUMP JUMPDEST JUMPDEST PUSH1 0x20 DUP4 ADD SWAP2 POP DUP4 PUSH1 0x20 DUP3 MUL DUP4 ADD GT ISZERO PUSH2 0x14D7 JUMPI PUSH2 0x14D6 PUSH2 0x1483 JUMP JUMPDEST JUMPDEST SWAP3 POP SWAP3 SWAP1 POP JUMP JUMPDEST PUSH1 0x0 DUP1 PUSH1 0x20 DUP4 DUP6 SUB SLT ISZERO PUSH2 0x14F5 JUMPI PUSH2 0x14F4 PUSH2 0x146F JUMP JUMPDEST JUMPDEST PUSH1 0x0 DUP4 ADD CALLDATALOAD PUSH8 0xFFFFFFFFFFFFFFFF DUP2 GT ISZERO PUSH2 0x1513 JUMPI PUSH2 0x1512 PUSH2 0x1474 JUMP JUMPDEST JUMPDEST PUSH2 0x151F DUP6 DUP3 DUP7 ADD PUSH2 0x1488 JUMP JUMPDEST SWAP3 POP SWAP3 POP POP SWAP3 POP SWAP3 SWAP1 POP JUMP JUMPDEST PUSH2 0x1534 DUP2 PUSH2 0x13FF JUMP JUMPDEST DUP2 EQ PUSH2 0x153F JUMPI PUSH1 0x0 DUP1 REVERT JUMPDEST POP JUMP JUMPDEST PUSH1 0x0 DUP2 CALLDATALOAD SWAP1 POP PUSH2 0x1551 DUP2 PUSH2 0x152B JUMP JUMPDEST SWAP3 SWAP2 POP POP JUMP JUMPDEST PUSH1 0x0 PUSH1 0x20 DUP3 DUP5 SUB SLT ISZERO PUSH2 0x156D JUMPI PUSH2 0x156C PUSH2 0x146F JUMP JUMPDEST JUMPDEST PUSH1 0x0 PUSH2 0x157B DUP5 DUP3 DUP6 ADD PUSH2 0x1542 JUMP JUMPDEST SWAP2 POP POP SWAP3 SWAP2 POP POP JUMP JUMPDEST PUSH1 0x0 DUP2 ISZERO ISZERO SWAP1 POP SWAP2 SWAP1 POP JUMP JUMPDEST PUSH2 0x1599 DUP2 PUSH2 0x1584 JUMP JUMPDEST DUP3 MSTORE POP POP JUMP JUMPDEST PUSH1 0x0 PUSH1 0x20 DUP3 ADD SWAP1 POP PUSH2 0x15B4 PUSH1 0x0 DUP4 ADD DUP5 PUSH2 0x1590 JUMP JUMPDEST SWAP3 SWAP2 POP POP JUMP JUMPDEST PUSH2 0x15C3 DUP2 PUSH2 0x143B JUMP JUMPDEST DUP2 EQ PUSH2 0x15CE JUMPI PUSH1 0x0 DUP1 REVERT JUMPDEST POP JUMP JUMPDEST PUSH1 0x0 DUP2 CALLDATALOAD SWAP1 POP PUSH2 0x15E0 DUP2 PUSH2 0x15BA JUMP JUMPDEST SWAP3 SWAP2 POP POP JUMP JUMPDEST PUSH1 0x0 PUSH1 0x20 DUP3 DUP5 SUB SLT ISZERO PUSH2 0x15FC JUMPI PUSH2 0x15FB PUSH2 0x146F JUMP JUMPDEST JUMPDEST PUSH1 0x0 PUSH2 0x160A DUP5 DUP3 DUP6 ADD PUSH2 0x15D1 JUMP JUMPDEST SWAP2 POP POP SWAP3 SWAP2 POP POP JUMP JUMPDEST PUSH1 0x0 DUP2 MLOAD SWAP1 POP SWAP2 SWAP1 POP JUMP JUMPDEST PUSH1 0x0 DUP3 DUP3 MSTORE PUSH1 0x20 DUP3 ADD SWAP1 POP SWAP3 SWAP2 POP POP JUMP JUMPDEST PUSH1 0x0 JUMPDEST DUP4 DUP2 LT ISZERO PUSH2 0x164D JUMPI DUP1 DUP3 ADD MLOAD DUP2 DUP5 ADD MSTORE PUSH1 0x20 DUP2 ADD SWAP1 POP PUSH2 0x1632 JUMP JUMPDEST PUSH1 0x0 DUP5 DUP5 ADD MSTORE POP POP POP POP JUMP JUMPDEST PUSH1 0x0 PUSH1 0x1F NOT PUSH1 0x1F DUP4 ADD AND SWAP1 POP SWAP2 SWAP1 POP JUMP JUMPDEST PUSH1 0x0 PUSH2 0x1675 DUP3 PUSH2 0x1613 JUMP JUMPDEST PUSH2 0x167F DUP2 DUP6 PUSH2 0x161E JUMP JUMPDEST SWAP4 POP PUSH2 0x168F DUP2 DUP6 PUSH1 0x20 DUP7 ADD PUSH2 0x162F JUMP JUMPDEST PUSH2 0x1698 DUP2 PUSH2 0x1659 JUMP JUMPDEST DUP5 ADD SWAP2 POP POP SWAP3 SWAP2 POP POP JUMP JUMPDEST PUSH1 0x0 PUSH1 0x20 DUP3 ADD SWAP1 POP DUP2 DUP2 SUB PUSH1 0x0 DUP4 ADD MSTORE PUSH2 0x16BD DUP2 DUP5 PUSH2 0x166A JUMP JUMPDEST SWAP1 POP SWAP3 SWAP2 POP POP JUMP JUMPDEST PUSH1 0x3 DUP2 LT PUSH2 0x16D2 JUMPI PUSH1 0x0 DUP1 REVERT JUMPDEST POP JUMP JUMPDEST PUSH1 0x0 DUP2 CALLDATALOAD SWAP1 POP PUSH2 0x16E4 DUP2 PUSH2 0x16C5 JUMP JUMPDEST SWAP3 SWAP2 POP POP JUMP JUMPDEST PUSH1 0x0 DUP1 PUSH1 0x40 DUP4 DUP6 SUB SLT ISZERO PUSH2 0x1701 JUMPI PUSH2 0x1700 PUSH2 0x146F JUMP JUMPDEST JUMPDEST PUSH1 0x0 PUSH2 0x170F DUP6 DUP3 DUP7 ADD PUSH2 0x15D1 JUMP JUMPDEST SWAP3 POP POP PUSH1 0x20 PUSH2 0x1720 DUP6 DUP3 DUP7 ADD PUSH2 0x16D5 JUMP JUMPDEST SWAP2 POP POP SWAP3 POP SWAP3 SWAP1 POP JUMP JUMPDEST PUSH1 0x0 PUSH1 0x60 DUP3 ADD SWAP1 POP PUSH2 0x173F PUSH1 0x0 DUP4 ADD DUP7 PUSH2 0x1445 JUMP JUMPDEST PUSH2 0x174C PUSH1 0x20 DUP4 ADD DUP6 PUSH2 0x1445 JUMP JUMPDEST PUSH2 0x1759 PUSH1 0x40 DUP4 ADD DUP5 PUSH2 0x1445 JUMP JUMPDEST SWAP5 SWAP4 POP POP POP POP JUMP JUMPDEST PUSH32 0x4E6F7420617574686F72697A6564206F7065726174696F6E0000000000000000 PUSH1 0x0 DUP3 ADD MSTORE POP JUMP JUMPDEST PUSH1 0x0 PUSH2 0x1797 PUSH1 0x18 DUP4 PUSH2 0x161E JUMP JUMPDEST SWAP2 POP PUSH2 0x17A2 DUP3 PUSH2 0x1761 JUMP JUMPDEST PUSH1 0x20 DUP3 ADD SWAP1 POP SWAP2 SWAP1 POP JUMP JUMPDEST PUSH1 0x0 PUSH1 0x20 DUP3 ADD SWAP1 POP DUP2 DUP2 SUB PUSH1 0x0 DUP4 ADD MSTORE PUSH2 0x17C6 DUP2 PUSH2 0x178A JUMP JUMPDEST SWAP1 POP SWAP2 SWAP1 POP JUMP JUMPDEST PUSH32 0x4E487B7100000000000000000000000000000000000000000000000000000000 PUSH1 0x0 MSTORE PUSH1 0x32 PUSH1 0x4 MSTORE PUSH1 0x24 PUSH1 0x0 REVERT JUMPDEST PUSH32 0x4E487B7100000000000000000000000000000000000000000000000000000000 PUSH1 0x0 MSTORE PUSH1 0x22 PUSH1 0x4 MSTORE PUSH1 0x24 PUSH1 0x0 REVERT JUMPDEST PUSH1 0x0 PUSH1 0x2 DUP3 DIV SWAP1 POP PUSH1 0x1 DUP3 AND DUP1 PUSH2 0x1843 JUMPI PUSH1 0x7F DUP3 AND SWAP2 POP JUMPDEST PUSH1 0x20 DUP3 LT DUP2 SUB PUSH2 0x1856 JUMPI PUSH2 0x1855 PUSH2 0x17FC JUMP JUMPDEST JUMPDEST POP SWAP2 SWAP1 POP JUMP JUMPDEST PUSH32 0x566F7573206176657A2064656A6120766F74652E000000000000000000000000 PUSH1 0x0 DUP3 ADD MSTORE POP JUMP JUMPDEST PUSH1 0x0 PUSH2 0x1892 PUSH1 0x14 DUP4 PUSH2 0x161E JUMP JUMPDEST SWAP2 POP PUSH2 0x189D DUP3 PUSH2 0x185C JUMP JUMPDEST PUSH1 0x20 DUP3 ADD SWAP1 POP SWAP2 SWAP1 POP JUMP JUMPDEST PUSH1 0x0 PUSH1 0x20 DUP3 ADD SWAP1 POP DUP2 DUP2 SUB PUSH1 0x0 DUP4 ADD MSTORE PUSH2 0x18C1 DUP2 PUSH2 0x1885 JUMP JUMPDEST SWAP1 POP SWAP2 SWAP1 POP JUMP JUMPDEST PUSH32 0x4E487B7100000000000000000000000000000000000000000000000000000000 PUSH1 0x0 MSTORE PUSH1 0x21 PUSH1 0x4 MSTORE PUSH1 0x24 PUSH1 0x0 REVERT JUMPDEST PUSH32 0x566F746520696E76616C6964652E000000000000000000000000000000000000 PUSH1 0x0 DUP3 ADD MSTORE POP JUMP JUMPDEST PUSH1 0x0 PUSH2 0x192D PUSH1 0xE DUP4 PUSH2 0x161E JUMP JUMPDEST SWAP2 POP PUSH2 0x1938 DUP3 PUSH2 0x18F7 JUMP JUMPDEST PUSH1 0x20 DUP3 ADD SWAP1 POP SWAP2 SWAP1 POP JUMP JUMPDEST PUSH1 0x0 PUSH1 0x20 DUP3 ADD SWAP1 POP DUP2 DUP2 SUB PUSH1 0x0 DUP4 ADD MSTORE PUSH2 0x195C DUP2 PUSH2 0x1920 JUMP JUMPDEST SWAP1 POP SWAP2 SWAP1 POP JUMP JUMPDEST PUSH32 0x4E487B7100000000000000000000000000000000000000000000000000000000 PUSH1 0x0 MSTORE PUSH1 0x11 PUSH1 0x4 MSTORE PUSH1 0x24 PUSH1 0x0 REVERT JUMPDEST PUSH1 0x0 PUSH2 0x199D DUP3 PUSH2 0x143B JUMP JUMPDEST SWAP2 POP PUSH32 0xFFFFFFFFFFFFFFFFFFFFFFFFFFFFFFFFFFFFFFFFFFFFFFFFFFFFFFFFFFFFFFFF DUP3 SUB PUSH2 0x19CF JUMPI PUSH2 0x19CE PUSH2 0x1963 JUMP JUMPDEST JUMPDEST PUSH1 0x1 DUP3 ADD SWAP1 POP SWAP2 SWAP1 POP JUMP JUMPDEST PUSH32 0x5265736F6C7574696F6E20696E636F6E6E756500000000000000000000000000 PUSH1 0x0 DUP3 ADD MSTORE POP JUMP JUMPDEST PUSH1 0x0 PUSH2 0x1A10 PUSH1 0x13 DUP4 PUSH2 0x161E JUMP JUMPDEST SWAP2 POP PUSH2 0x1A1B DUP3 PUSH2 0x19DA JUMP JUMPDEST PUSH1 0x20 DUP3 ADD SWAP1 POP SWAP2 SWAP1 POP JUMP JUMPDEST PUSH1 0x0 PUSH1 0x20 DUP3 ADD SWAP1 POP DUP2 DUP2 SUB PUSH1 0x0 DUP4 ADD MSTORE PUSH2 0x1A3F DUP2 PUSH2 0x1A03 JUMP JUMPDEST SWAP1 POP SWAP2 SWAP1 POP JUMP JUMPDEST PUSH1 0x0 PUSH1 0xA0 DUP3 ADD SWAP1 POP PUSH2 0x1A5B PUSH1 0x0 DUP4 ADD DUP9 PUSH2 0x1445 JUMP JUMPDEST PUSH2 0x1A68 PUSH1 0x20 DUP4 ADD DUP8 PUSH2 0x1445 JUMP JUMPDEST PUSH2 0x1A75 PUSH1 0x40 DUP4 ADD DUP7 PUSH2 0x1445 JUMP JUMPDEST PUSH2 0x1A82 PUSH1 0x60 DUP4 ADD DUP6 PUSH2 0x1445 JUMP JUMPDEST DUP2 DUP2 SUB PUSH1 0x80 DUP4 ADD MSTORE PUSH2 0x1A94 DUP2 DUP5 PUSH2 0x166A JUMP JUMPDEST SWAP1 POP SWAP7 SWAP6 POP POP POP POP POP POP JUMP JUMPDEST PUSH32 0x416464726573732073686F756C646E2774206265207A65726F00000000000000 PUSH1 0x0 DUP3 ADD MSTORE POP JUMP JUMPDEST PUSH1 0x0 PUSH2 0x1AD6 PUSH1 0x19 DUP4 PUSH2 0x161E JUMP JUMPDEST SWAP2 POP PUSH2 0x1AE1 DUP3 PUSH2 0x1AA0 JUMP JUMPDEST PUSH1 0x20 DUP3 ADD SWAP1 POP SWAP2 SWAP1 POP JUMP JUMPDEST PUSH1 0x0 PUSH1 0x20 DUP3 ADD SWAP1 POP DUP2 DUP2 SUB PUSH1 0x0 DUP4 ADD MSTORE PUSH2 0x1B05 DUP2 PUSH2 0x1AC9 JUMP JUMPDEST SWAP1 POP SWAP2 SWAP1 POP JUMP JUMPDEST PUSH32 0x5265736F6C7574696F6E20696E76616C6964652E000000000000000000000000 PUSH1 0x0 DUP3 ADD MSTORE POP JUMP JUMPDEST PUSH1 0x0 PUSH2 0x1B42 PUSH1 0x14 DUP4 PUSH2 0x161E JUMP JUMPDEST SWAP2 POP PUSH2 0x1B4D DUP3 PUSH2 0x1B0C JUMP JUMPDEST PUSH1 0x20 DUP3 ADD SWAP1 POP SWAP2 SWAP1 POP JUMP JUMPDEST PUSH1 0x0 PUSH1 0x20 DUP3 ADD SWAP1 POP DUP2 DUP2 SUB PUSH1 0x0 DUP4 ADD MSTORE PUSH2 0x1B71 DUP2 PUSH2 0x1B35 JUMP JUMPDEST SWAP1 POP SWAP2 SWAP1 POP JUMP JUMPDEST PUSH1 0x0 PUSH1 0x40 DUP3 ADD SWAP1 POP PUSH2 0x1B8D PUSH1 0x0 DUP4 ADD DUP6 PUSH2 0x1411 JUMP JUMPDEST DUP2 DUP2 SUB PUSH1 0x20 DUP4 ADD MSTORE PUSH2 0x1B9F DUP2 DUP5 PUSH2 0x166A JUMP JUMPDEST SWAP1 POP SWAP4 SWAP3 POP POP POP JUMP JUMPDEST PUSH32 0x4E487B7100000000000000000000000000000000000000000000000000000000 PUSH1 0x0 MSTORE PUSH1 0x41 PUSH1 0x4 MSTORE PUSH1 0x24 PUSH1 0x0 REVERT JUMPDEST PUSH1 0x0 DUP2 SWAP1 POP DUP2 PUSH1 0x0 MSTORE PUSH1 0x20 PUSH1 0x0 KECCAK256 SWAP1 POP SWAP2 SWAP1 POP JUMP JUMPDEST PUSH1 0x0 PUSH1 0x20 PUSH1 0x1F DUP4 ADD DIV SWAP1 POP SWAP2 SWAP1 POP JUMP JUMPDEST PUSH1 0x0 DUP3 DUP3 SHL SWAP1 POP SWAP3 SWAP2 POP POP JUMP JUMPDEST PUSH1 0x0 PUSH1 0x8 DUP4 MUL PUSH2 0x1C39 PUSH32 0xFFFFFFFFFFFFFFFFFFFFFFFFFFFFFFFFFFFFFFFFFFFFFFFFFFFFFFFFFFFFFFFF DUP3 PUSH2 0x1BFC JUMP JUMPDEST PUSH2 0x1C43 DUP7 DUP4 PUSH2 0x1BFC JUMP JUMPDEST SWAP6 POP DUP1 NOT DUP5 AND SWAP4 POP DUP1 DUP7 AND DUP5 OR SWAP3 POP POP POP SWAP4 SWAP3 POP POP POP JUMP JUMPDEST PUSH1 0x0 DUP2 SWAP1 POP SWAP2 SWAP1 POP JUMP JUMPDEST PUSH1 0x0 PUSH2 0x1C80 PUSH2 0x1C7B PUSH2 0x1C76 DUP5 PUSH2 0x143B JUMP JUMPDEST PUSH2 0x1C5B JUMP JUMPDEST PUSH2 0x143B JUMP JUMPDEST SWAP1 POP SWAP2 SWAP1 POP JUMP JUMPDEST PUSH1 0x0 DUP2 SWAP1 POP SWAP2 SWAP1 POP JUMP JUMPDEST PUSH2 0x1C9A DUP4 PUSH2 0x1C65 JUMP JUMPDEST PUSH2 0x1CAE PUSH2 0x1CA6 DUP3 PUSH2 0x1C87 JUMP JUMPDEST DUP5 DUP5 SLOAD PUSH2 0x1C09 JUMP JUMPDEST DUP3 SSTORE POP POP POP POP JUMP JUMPDEST PUSH1 0x0 SWAP1 JUMP JUMPDEST PUSH2 0x1CC3 PUSH2 0x1CB6 JUMP JUMPDEST PUSH2 0x1CCE DUP2 DUP5 DUP5 PUSH2 0x1C91 JUMP JUMPDEST POP POP POP JUMP JUMPDEST JUMPDEST DUP2 DUP2 LT ISZERO PUSH2 0x1CF2 JUMPI PUSH2 0x1CE7 PUSH1 0x0 DUP3 PUSH2 0x1CBB JUMP JUMPDEST PUSH1 0x1 DUP2 ADD SWAP1 POP PUSH2 0x1CD4 JUMP JUMPDEST POP POP JUMP JUMPDEST PUSH1 0x1F DUP3 GT ISZERO PUSH2 0x1D37 JUMPI PUSH2 0x1D08 DUP2 PUSH2 0x1BD7 JUMP JUMPDEST PUSH2 0x1D11 DUP5 PUSH2 0x1BEC JUMP JUMPDEST DUP2 ADD PUSH1 0x20 DUP6 LT ISZERO PUSH2 0x1D20 JUMPI DUP2 SWAP1 POP JUMPDEST PUSH2 0x1D34 PUSH2 0x1D2C DUP6 PUSH2 0x1BEC JUMP JUMPDEST DUP4 ADD DUP3 PUSH2 0x1CD3 JUMP JUMPDEST POP POP JUMPDEST POP POP POP JUMP JUMPDEST PUSH1 0x0 DUP3 DUP3 SHR SWAP1 POP SWAP3 SWAP2 POP POP JUMP JUMPDEST PUSH1 0x0 PUSH2 0x1D5A PUSH1 0x0 NOT DUP5 PUSH1 0x8 MUL PUSH2 0x1D3C JUMP JUMPDEST NOT DUP1 DUP4 AND SWAP2 POP POP SWAP3 SWAP2 POP POP JUMP JUMPDEST PUSH1 0x0 PUSH2 0x1D73 DUP4 DUP4 PUSH2 0x1D49 JUMP JUMPDEST SWAP2 POP DUP3 PUSH1 0x2 MUL DUP3 OR SWAP1 POP SWAP3 SWAP2 POP POP JUMP JUMPDEST PUSH2 0x1D8C DUP3 PUSH2 0x1613 JUMP JUMPDEST PUSH8 0xFFFFFFFFFFFFFFFF DUP2 GT ISZERO PUSH2 0x1DA5 JUMPI PUSH2 0x1DA4 PUSH2 0x1BA8 JUMP JUMPDEST JUMPDEST PUSH2 0x1DAF DUP3 SLOAD PUSH2 0x182B JUMP JUMPDEST PUSH2 0x1DBA DUP3 DUP3 DUP6 PUSH2 0x1CF6 JUMP JUMPDEST PUSH1 0x0 PUSH1 0x20 SWAP1 POP PUSH1 0x1F DUP4 GT PUSH1 0x1 DUP2 EQ PUSH2 0x1DED JUMPI PUSH1 0x0 DUP5 ISZERO PUSH2 0x1DDB JUMPI DUP3 DUP8 ADD MLOAD SWAP1 POP JUMPDEST PUSH2 0x1DE5 DUP6 DUP3 PUSH2 0x1D67 JUMP JUMPDEST DUP7 SSTORE POP PUSH2 0x1E4D JUMP JUMPDEST PUSH1 0x1F NOT DUP5 AND PUSH2 0x1DFB DUP7 PUSH2 0x1BD7 JUMP JUMPDEST PUSH1 0x0 JUMPDEST DUP3 DUP2 LT ISZERO PUSH2 0x1E23 JUMPI DUP5 DUP10 ADD MLOAD DUP3 SSTORE PUSH1 0x1 DUP3 ADD SWAP2 POP PUSH1 0x20 DUP6 ADD SWAP5 POP PUSH1 0x20 DUP2 ADD SWAP1 POP PUSH2 0x1DFE JUMP JUMPDEST DUP7 DUP4 LT ISZERO PUSH2 0x1E40 JUMPI DUP5 DUP10 ADD MLOAD PUSH2 0x1E3C PUSH1 0x1F DUP10 AND DUP3 PUSH2 0x1D49 JUMP JUMPDEST DUP4 SSTORE POP JUMPDEST PUSH1 0x1 PUSH1 0x2 DUP9 MUL ADD DUP9 SSTORE POP POP POP JUMPDEST POP POP POP POP POP POP JUMP INVALID 0x4C PUSH2 0x6E63 PUSH6 0x7220756E2064 PUSH6 0x6669206E6174 PUSH10 0x6F6E616C203A20717569 KECCAK256 PUSH19 0x6575737369726120612074656E697220323468 KECCAK256 PUSH20 0x616E73207574696C6973657220756E206D6F7420 PUSH2 0x206C PUSH2 0x206D PUSH16 0x646520636F6D6D652027647572616269 PUSH13 0x69746527206F752027696E6E6F PUSH23 0x6174696F6E27203F52656D706C61636572206C65205061 PUSH19 0x6C656D656E742070617220756E2067726F7570 PUSH6 0x205768617473 COINBASE PUSH17 0x702C20706F757220646573206465626174 PUSH20 0x20706C7573207265616374696673206574206465 PUSH20 0x206465636973696F6E7320626173656573207375 PUSH19 0x20646573206D656D65732E4C61207265736F6C PUSH22 0x74696F6E206E27612070617320646520726573756C74 PUSH2 0x7420 PUSH4 0x6C616972 KECCAK256 0x28 PUSH6 0x67616C697465 KECCAK256 PUSH6 0x6E747265206C PUSH6 0x7320766F7465 PUSH20 0x292E204F6E206661697420756E207365636F6E64 KECCAK256 PUSH21 0x6F75722E4F666672697220756E65206D656461696C PUSH13 0x652064276F7220612063686171 PUSH22 0x65206369746F79656E20706F75722061766F69722027 PUSH20 0x61757665206C6120706C616E6574652720656E20 PUSH21 0x7269616E7420736F6E2064656368657420756E6520 PUSH7 0x6F69732064616E PUSH20 0x206C27616E6E65652E5461786572206C65732072 PUSH6 0x737069726174 PUSH10 0x6F6E732074726F702070 PUSH19 0x6F666F6E646573206166696E206465206C696D PUSH10 0x746572206C657320656D PUSH10 0x7373696F6E7320646520 NUMBER 0x4F ORIGIN KECCAK256 PUSH5 0x6573206875 PUSH14 0x61696E732E5265636F6D70656E73 PUSH6 0x7220746F7574 PUSH6 0x20706572736F PUSH15 0x6E652063617061626C652064652062 PUSH16 0x69726520756E20636166652073616E73 KECCAK256 PUSH17 0x726F647569726520756E20646563686574 0x2C KECCAK256 PUSH15 0x69207061726C6572206465206C2765 PUSH25 0x706C6F697420737572206C6573207265736561757820736F63 PUSH10 0x6175782E4F626C696765 PUSH19 0x20746F7573206C657320656D706C6F79657320 PUSH2 0x2066 PUSH2 0x6972 PUSH6 0x206475207465 PUSH13 0x657472617661696C2064657075 PUSH10 0x7320756E2068616D6163 0x2C KECCAK256 PUSH17 0x6F7572206D6178696D69736572206C6120 PUSH17 0x726F647563746976697465206574206C65 PUSH20 0x20636F75707320646520736F6C65696C2E566F75 PUSH13 0x657A2D766F757320656C697265 KECCAK256 0x4D PUSH2 0x6E75 PUSH6 0x6C6120636F6D PUSH14 0x6520736372757461746575722064 PUSH6 0x206C61207365 PUSH2 0x6E63 PUSH6 0x2C20756E2070 PUSH16 0x737465206372756369616C2071756920 PUSH4 0x68616E67 PUSH6 0x7261206C6520 PUSH4 0x6F757273 KECCAK256 PUSH5 0x65206C2768 PUSH10 0x73746F6972652E204F75 KECCAK256 PUSH17 0x61732E4F7267616E697365722064657320 PUSH20 0x656D696E616972657320737572206C6120726564 PUSH22 0x6374696F6E2064657320656D697373696F6E73206465 KECCAK256 PUSH4 0x6172626F PUSH15 0x652E2E2E20756E697175656D656E74 KECCAK256 PUSH2 0x6363 PUSH6 0x737369626C65 PUSH20 0x20656E206A65742070726976652E4D6574747265 KECCAK256 PUSH6 0x6E20706C6163 PUSH6 0x20756E652063 PUSH16 0x6D6D697373696F6E20706F7572206465 PUSH4 0x69646572 KECCAK256 PUSH20 0x69206C6573206465636973696F6E7320646F6976 PUSH6 0x6E7420657472 PUSH6 0x206465636964 PUSH6 0x657320706172 KECCAK256 PUSH22 0x6E6520636F6D6D697373696F6E2E566F756C657A2D76 PUSH16 0x757320656C69726520436C656D656E63 PUSH6 0x20636F6D6D65 KECCAK256 PUSH17 0x7265736964656E7465206465206C612073 PUSH6 0x616E63652C20 PUSH4 0x61722072 PUSH10 0x656E206E652070657574 KECCAK256 PUSH4 0x6F6D6D65 PUSH15 0x6365722073616E7320756E65206669 PUSH8 0x7572652064276175 PUSH21 0x6F726974652073796D626F6C697175652E52656D70 PUSH13 0x6163657220746F75746573206C PUSH6 0x7320766F6974 PUSH22 0x7265732070617220646573206C69636F726E65732062 PUSH10 0x6F64656772616461626C PUSH6 0x732C20706172 PUSH4 0x65207175 PUSH6 0x206C27696E6E PUSH16 0x766174696F6E20632765737420696D70 PUSH16 0x7274616E742E4C6520726F6C65206465 KECCAK256 PUSH17 0x7265736964656E74206120657465206174 PUSH21 0x72696275652061206C276164726573736520737065 PUSH4 0x69666965 PUSH6 0x206170726573 KECCAK256 PUSH23 0x616C69646174696F6E20647520766F74652E5472616E73 PUSH7 0x6F726D65722074 PUSH16 0x7573206C657320696D6D6575626C6573 KECCAK256 PUSH6 0x6E207061696E KECCAK256 PUSH5 0x2765706963 PUSH6 0x732C20636172 KECCAK256 PUSH4 0x27657374 KECCAK256 PUSH2 0x7573 PUSH20 0x692064757261626C652071756520647520626574 PUSH16 0x6E206D6169732062656175636F757020 PUSH17 0x6C75732064656C6963696575782E4C6120 PUSH19 0x65736F6C7574696F6E2061206574652072656A PUSH6 0x7465652C2063 PUSH2 0x7220 PUSH13 0x61206D616A6F72697465206465 PUSH20 0x20766F7465732065746169656E74206E65757472 PUSH6 0x732E4C652072 PUSH16 0x6C652064652073637275746174657572 KECCAK256 PUSH2 0x2065 PUSH21 0x652061747472696275652061206C27616472657373 PUSH6 0x207370656369 PUSH7 0x69656520617072 PUSH6 0x732076616C69 PUSH5 0x6174696F6E KECCAK256 PUSH5 0x7520766F74 PUSH6 0x2EA264697066 PUSH20 0x582212202093617A4284CA53252BB1C6800685CB 0xDE EQ GASLIMIT PUSH32 0x4700A86A9BDA31D3998A353E64736F6C634300081C0033000000000000000000 "},"methodIdentifiers":{"AfficherResolution(uint256)":"c4fc2a01","InitialiserResolution()":"ea7cb506","ResultatResolution(uint256)":"f3f1c705","VoterResolution(uint256,uint8)":"cb588875","addToWhitelist(address[])":"7f649783","cloturerVote(uint256)":"e1a93f71","owner()":"8da5cb5b","president()":"324a1376","removeFromWhitelist(address)":"8ab1d681","resolutionsCount()":"43e5f734","scrutateur()":"710cefcc","transferOwnership(address)":"f2fde38b","whitelist(address)":"9b19251a"}}}}}