{
  "_format": "hh-sol-artifact-1",
  "contractName": "Election",
  "sourceName": "contracts/Election.sol",
  "abi": [
    {
      "anonymous": false,
      "inputs": [
        {
          "indexed": true,
          "internalType": "address",
          "name": "_beneficiary",
          "type": "address"
        }
      ],
      "name": "AddedBeneficiary",
      "type": "event"
    },
    {
      "anonymous": false,
      "inputs": [
        {
          "indexed": true,
          "internalType": "address",
          "name": "_newPresident",
          "type": "address"
        }
      ],
      "name": "NewPresidentElected",
      "type": "event"
    },
    {
      "anonymous": false,
      "inputs": [
        {
          "indexed": false,
          "internalType": "address",
          "name": "president",
          "type": "address"
        },
        {
          "indexed": false,
          "internalType": "string",
          "name": "message",
          "type": "string"
        }
      ],
      "name": "NewPresidentElectedWithMessage",
      "type": "event"
    },
    {
      "anonymous": false,
      "inputs": [
        {
          "indexed": true,
          "internalType": "address",
          "name": "_newScrutateur",
          "type": "address"
        }
      ],
      "name": "NewScrutateurElected",
      "type": "event"
    },
    {
      "anonymous": false,
      "inputs": [
        {
          "indexed": false,
          "internalType": "address",
          "name": "scrutateur",
          "type": "address"
        },
        {
          "indexed": false,
          "internalType": "string",
          "name": "message",
          "type": "string"
        }
      ],
      "name": "NewScrutateurElectedWithMessage",
      "type": "event"
    },
    {
      "anonymous": false,
      "inputs": [
        {
          "indexed": true,
          "internalType": "address",
          "name": "previousOwner",
          "type": "address"
        },
        {
          "indexed": true,
          "internalType": "address",
          "name": "newOwner",
          "type": "address"
        }
      ],
      "name": "OwnershipTransferred",
      "type": "event"
    },
    {
      "anonymous": false,
      "inputs": [
        {
          "indexed": true,
          "internalType": "uint256",
          "name": "_resolutionId",
          "type": "uint256"
        },
        {
          "indexed": false,
          "internalType": "string",
          "name": "_description",
          "type": "string"
        }
      ],
      "name": "ResolutionAdded",
      "type": "event"
    },
    {
      "anonymous": false,
      "inputs": [
        {
          "indexed": false,
          "internalType": "uint256",
          "name": "resolutionId",
          "type": "uint256"
        },
        {
          "indexed": false,
          "internalType": "uint256",
          "name": "pour",
          "type": "uint256"
        },
        {
          "indexed": false,
          "internalType": "uint256",
          "name": "contre",
          "type": "uint256"
        },
        {
          "indexed": false,
          "internalType": "uint256",
          "name": "neutre",
          "type": "uint256"
        },
        {
          "indexed": false,
          "internalType": "string",
          "name": "resultMessage",
          "type": "string"
        }
      ],
      "name": "VoteCloture",
      "type": "event"
    },
    {
      "anonymous": false,
      "inputs": [
        {
          "indexed": true,
          "internalType": "uint256",
          "name": "_resolutionId",
          "type": "uint256"
        },
        {
          "indexed": true,
          "internalType": "enum Election.Vote",
          "name": "_vote",
          "type": "uint8"
        }
      ],
      "name": "VotedForResolution",
      "type": "event"
    },
    {
      "inputs": [
        {
          "internalType": "uint256",
          "name": "_resolutionId",
          "type": "uint256"
        }
      ],
      "name": "AfficherResolution",
      "outputs": [
        {
          "internalType": "string",
          "name": "",
          "type": "string"
        }
      ],
      "stateMutability": "view",
      "type": "function"
    },
    {
      "inputs": [],
      "name": "InitialiserResolution",
      "outputs": [],
      "stateMutability": "nonpayable",
      "type": "function"
    },
    {
      "inputs": [
        {
          "internalType": "uint256",
          "name": "_resolutionId",
          "type": "uint256"
        }
      ],
      "name": "ResultatResolution",
      "outputs": [
        {
          "internalType": "uint256",
          "name": "forVotes",
          "type": "uint256"
        },
        {
          "internalType": "uint256",
          "name": "againstVotes",
          "type": "uint256"
        },
        {
          "internalType": "uint256",
          "name": "neutralVotes",
          "type": "uint256"
        }
      ],
      "stateMutability": "view",
      "type": "function"
    },
    {
      "inputs": [
        {
          "internalType": "uint256",
          "name": "_resolutionId",
          "type": "uint256"
        },
        {
          "internalType": "enum Election.Vote",
          "name": "_vote",
          "type": "uint8"
        }
      ],
      "name": "VoterResolution",
      "outputs": [],
      "stateMutability": "nonpayable",
      "type": "function"
    },
    {
      "inputs": [
        {
          "internalType": "address[]",
          "name": "_beneficiaries",
          "type": "address[]"
        }
      ],
      "name": "addToWhitelist",
      "outputs": [],
      "stateMutability": "nonpayable",
      "type": "function"
    },
    {
      "inputs": [
        {
          "internalType": "uint256",
          "name": "_resolutionId",
          "type": "uint256"
        }
      ],
      "name": "cloturerVote",
      "outputs": [],
      "stateMutability": "nonpayable",
      "type": "function"
    },
    {
      "inputs": [],
      "name": "owner",
      "outputs": [
        {
          "internalType": "address",
          "name": "",
          "type": "address"
        }
      ],
      "stateMutability": "view",
      "type": "function"
    },
    {
      "inputs": [],
      "name": "president",
      "outputs": [
        {
          "internalType": "address",
          "name": "",
          "type": "address"
        }
      ],
      "stateMutability": "view",
      "type": "function"
    },
    {
      "inputs": [
        {
          "internalType": "address",
          "name": "_beneficiary",
          "type": "address"
        }
      ],
      "name": "removeFromWhitelist",
      "outputs": [],
      "stateMutability": "nonpayable",
      "type": "function"
    },
    {
      "inputs": [],
      "name": "resolutionsCount",
      "outputs": [
        {
          "internalType": "uint256",
          "name": "",
          "type": "uint256"
        }
      ],
      "stateMutability": "view",
      "type": "function"
    },
    {
      "inputs": [],
      "name": "scrutateur",
      "outputs": [
        {
          "internalType": "address",
          "name": "",
          "type": "address"
        }
      ],
      "stateMutability": "view",
      "type": "function"
    },
    {
      "inputs": [
        {
          "internalType": "address",
          "name": "newOwner",
          "type": "address"
        }
      ],
      "name": "transferOwnership",
      "outputs": [],
      "stateMutability": "nonpayable",
      "type": "function"
    },
    {
      "inputs": [
        {
          "internalType": "address",
          "name": "",
          "type": "address"
        }
      ],
      "name": "whitelist",
      "outputs": [
        {
          "internalType": "bool",
          "name": "",
          "type": "bool"
        }
      ],
      "stateMutability": "view",
      "type": "function"
    }
  ],
  "bytecode": "0x6080604052348015600f57600080fd5b50336000806101000a81548173ffffffffffffffffffffffffffffffffffffffff021916908373ffffffffffffffffffffffffffffffffffffffff1602179055506125148061005f6000396000f3fe608060405234801561001057600080fd5b50600436106100cf5760003560e01c80639b19251a1161008c578063e1a93f7111610066578063e1a93f7114610200578063ea7cb5061461021c578063f2fde38b14610226578063f3f1c70514610242576100cf565b80639b19251a14610184578063c4fc2a01146101b4578063cb588875146101e4576100cf565b8063324a1376146100d457806343e5f734146100f2578063710cefcc146101105780637f6497831461012e5780638ab1d6811461014a5780638da5cb5b14610166575b600080fd5b6100dc610274565b6040516100e99190611420565b60405180910390f35b6100fa61029a565b6040516101079190611454565b60405180910390f35b6101186102a0565b6040516101259190611420565b60405180910390f35b610148600480360381019061014391906114de565b6102c6565b005b610164600480360381019061015f9190611557565b6103f2565b005b61016e6104db565b60405161017b9190611420565b60405180910390f35b61019e60048036038101906101999190611557565b6104ff565b6040516101ab919061159f565b60405180910390f35b6101ce60048036038101906101c991906115e6565b61051f565b6040516101db91906116a3565b60405180910390f35b6101fe60048036038101906101f991906116ea565b6105c4565b005b61021a600480360381019061021591906115e6565b610823565b005b610224610aa5565b005b610240600480360381019061023b9190611557565b610cc1565b005b61025c600480360381019061025791906115e6565b610e7b565b60405161026b9392919061172a565b60405180910390f35b600260009054906101000a900473ffffffffffffffffffffffffffffffffffffffff1681565b60045481565b600360009054906101000a900473ffffffffffffffffffffffffffffffffffffffff1681565b60008054906101000a900473ffffffffffffffffffffffffffffffffffffffff1673ffffffffffffffffffffffffffffffffffffffff163373ffffffffffffffffffffffffffffffffffffffff1614610354576040517f08c379a000000000000000000000000000000000000000000000000000000000815260040161034b906117ad565b60405180910390fd5b60005b828290508110156103ed57600180600085858581811061037a576103796117cd565b5b905060200201602081019061038f9190611557565b73ffffffffffffffffffffffffffffffffffffffff1673ffffffffffffffffffffffffffffffffffffffff16815260200190815260200160002060006101000a81548160ff0219169083151502179055508080600101915050610357565b505050565b60008054906101000a900473ffffffffffffffffffffffffffffffffffffffff1673ffffffffffffffffffffffffffffffffffffffff163373ffffffffffffffffffffffffffffffffffffffff1614610480576040517f08c379a0000000000000000000000000000000000000000000000000000000008152600401610477906117ad565b60405180910390fd5b6000600160008373ffffffffffffffffffffffffffffffffffffffff1673ffffffffffffffffffffffffffffffffffffffff16815260200190815260200160002060006101000a81548160ff02191690831515021790555050565b60008054906101000a900473ffffffffffffffffffffffffffffffffffffffff1681565b60016020528060005260406000206000915054906101000a900460ff1681565b606060066000838152602001908152602001600020805461053f9061182b565b80601f016020809104026020016040519081016040528092919081815260200182805461056b9061182b565b80156105b85780601f1061058d576101008083540402835291602001916105b8565b820191906000526020600020905b81548152906001019060200180831161059b57829003601f168201915b50505050509050919050565b6005600083815260200190815260200160002060003373ffffffffffffffffffffffffffffffffffffffff1673ffffffffffffffffffffffffffffffffffffffff16815260200190815260200160002060009054906101000a900460ff1615610662576040517f08c379a0000000000000000000000000000000000000000000000000000000008152600401610659906118a8565b60405180910390fd5b6000816002811115610677576106766118c8565b5b1015801561069857506002816002811115610695576106946118c8565b5b11155b6106d7576040517f08c379a00000000000000000000000000000000000000000000000000000000081526004016106ce90611943565b60405180910390fd5b60016005600084815260200190815260200160002060003373ffffffffffffffffffffffffffffffffffffffff1673ffffffffffffffffffffffffffffffffffffffff16815260200190815260200160002060006101000a81548160ff02191690831515021790555060006002811115610754576107536118c8565b5b816002811115610767576107666118c8565b5b0361079a5760076000838152602001908152602001600020600081548092919061079090611992565b919050555061081f565b600160028111156107ae576107ad6118c8565b5b8160028111156107c1576107c06118c8565b5b036107f4576008600083815260200190815260200160002060008154809291906107ea90611992565b919050555061081e565b60096000838152602001908152602001600020600081548092919061081890611992565b91905055505b5b5050565b60008054906101000a900473ffffffffffffffffffffffffffffffffffffffff1673ffffffffffffffffffffffffffffffffffffffff163373ffffffffffffffffffffffffffffffffffffffff16146108b1576040517f08c379a00000000000000000000000000000000000000000000000000000000081526004016108a8906117ad565b60405180910390fd5b60006006600083815260200190815260200160002080546108d19061182b565b905011610913576040517f08c379a000000000000000000000000000000000000000000000000000000000815260040161090a90611a26565b60405180910390fd5b6000600760008381526020019081526020016000205490506000600860008481526020019081526020016000205490506000600960008581526020019081526020016000205490506060828411801561096b57508184115b156109b557610978610f19565b6040518060400160405280601e81526020017f4c61207265736f6c7574696f6e20612065746520617070726f757665652e00008152509050610a5f565b83831180156109c357508183115b15610a05576040518060400160405280601c81526020017f4c61207265736f6c7574696f6e2061206574652072656a657465652e000000008152509050610a5e565b8382118015610a1357508282115b15610a3857604051806080016040528060478152602001612444604791399050610a5d565b6040518060800160405280605a8152602001611f3f605a91399050610a5c85611233565b5b5b5b7f74eab9e861e52c08183e9fb8da301c8f9baeb5d20a40ddd77179864d33e486e68585858585604051610a96959493929190611a46565b60405180910390a15050505050565b60008054906101000a900473ffffffffffffffffffffffffffffffffffffffff1673ffffffffffffffffffffffffffffffffffffffff163373ffffffffffffffffffffffffffffffffffffffff1614610b33576040517f08c379a0000000000000000000000000000000000000000000000000000000008152600401610b2a906117ad565b60405180910390fd5b610b546040518060a00160405280607b815260200161229d607b9139611367565b610b756040518060a001604052806076815260200161215760769139611367565b610b966040518060a0016040528060738152602001611f9960739139611367565b610bb76040518060a001604052806066815260200161231860669139611367565b610bd86040518060a00160405280607881526020016120df60789139611367565b610bf960405180608001604052806057815260200161200c60579139611367565b610c1a6040518060a00160405280607381526020016123d160739139611367565b610c3b6040518060a0016040528060738152602001611ecc60739139611367565b610c5c6040518060a00160405280607c8152602001612063607c9139611367565b610c7d6040518060a00160405280606a81526020016121cd606a9139611367565b610c9e6040518060a0016040528060768152602001611e5660769139611367565b610cbf6040518060a001604052806066815260200161223760669139611367565b565b60008054906101000a900473ffffffffffffffffffffffffffffffffffffffff1673ffffffffffffffffffffffffffffffffffffffff163373ffffffffffffffffffffffffffffffffffffffff1614610d4f576040517f08c379a0000000000000000000000000000000000000000000000000000000008152600401610d46906117ad565b60405180910390fd5b600073ffffffffffffffffffffffffffffffffffffffff168173ffffffffffffffffffffffffffffffffffffffff1603610dbe576040517f08c379a0000000000000000000000000000000000000000000000000000000008152600401610db590611aec565b60405180910390fd5b8073ffffffffffffffffffffffffffffffffffffffff1660008054906101000a900473ffffffffffffffffffffffffffffffffffffffff1673ffffffffffffffffffffffffffffffffffffffff167f8be0079c531659141344cd1fd0a4f28419497f9722a3daafe3b4186f6b6457e060405160405180910390a3806000806101000a81548173ffffffffffffffffffffffffffffffffffffffff021916908373ffffffffffffffffffffffffffffffffffffffff16021790555050565b60008060008084118015610e9157506004548411155b610ed0576040517f08c379a0000000000000000000000000000000000000000000000000000000008152600401610ec790611b58565b60405180910390fd5b6007600085815260200190815260200160002054925060086000858152602001908152602001600020549150600960008581526020019081526020016000205490509193909250565b600073ffffffffffffffffffffffffffffffffffffffff16600260009054906101000a900473ffffffffffffffffffffffffffffffffffffffff1673ffffffffffffffffffffffffffffffffffffffff16148015610f9e5750600860006001815260200190815260200160002054600760006001815260200190815260200160002054115b8015610fd15750600960006001815260200190815260200160002054600760006001815260200190815260200160002054115b156110a55773ee868457836bc3f2c05f7ad7f254d807ea4ea575600260006101000a81548173ffffffffffffffffffffffffffffffffffffffff021916908373ffffffffffffffffffffffffffffffffffffffff160217905550600060405180608001604052806053815260200161237e6053913990507fbd9ed5d68679b2b11d557820b1766cb8b8d7d8b3d60422f294753d50c856d62b600260009054906101000a900473ffffffffffffffffffffffffffffffffffffffff168260405161109b929190611b78565b60405180910390a1505b600073ffffffffffffffffffffffffffffffffffffffff16600360009054906101000a900473ffffffffffffffffffffffffffffffffffffffff1673ffffffffffffffffffffffffffffffffffffffff1614801561112a5750600860006002815260200190815260200160002054600760006002815260200190815260200160002054115b801561115d5750600960006002815260200190815260200160002054600760006002815260200190815260200160002054115b156112315773ee868457836bc3f2c05f7ad7f254d807ea4ea575600360006101000a81548173ffffffffffffffffffffffffffffffffffffffff021916908373ffffffffffffffffffffffffffffffffffffffff160217905550600060405180608001604052806054815260200161248b6054913990507f05068908b9a4035f4209543f871c98eb4e32143193eea44c8cdefba5a06a2fc5600360009054906101000a900473ffffffffffffffffffffffffffffffffffffffff1682604051611227929190611b78565b60405180910390a1505b565b60006006600083815260200190815260200160002080546112539061182b565b905011611295576040517f08c379a000000000000000000000000000000000000000000000000000000000815260040161128c90611a26565b60405180910390fd5b60006007600083815260200190815260200160002081905550600060086000838152602001908152602001600020819055506000600960008381526020019081526020016000208190555060005b6004548110156113635760006005600084815260200190815260200160002060003373ffffffffffffffffffffffffffffffffffffffff1673ffffffffffffffffffffffffffffffffffffffff16815260200190815260200160002060006101000a81548160ff02191690831515021790555080806001019150506112e3565b5050565b6004600081548092919061137a90611992565b91905055508060066000600454815260200190815260200160002090816113a19190611d83565b506004547f14a9277804b56a381d8e536e29b9ed92b395e36216ed9d175d8bc6d706bda82c826040516113d491906116a3565b60405180910390a250565b600073ffffffffffffffffffffffffffffffffffffffff82169050919050565b600061140a826113df565b9050919050565b61141a816113ff565b82525050565b60006020820190506114356000830184611411565b92915050565b6000819050919050565b61144e8161143b565b82525050565b60006020820190506114696000830184611445565b92915050565b600080fd5b600080fd5b600080fd5b600080fd5b600080fd5b60008083601f84011261149e5761149d611479565b5b8235905067ffffffffffffffff8111156114bb576114ba61147e565b5b6020830191508360208202830111156114d7576114d6611483565b5b9250929050565b600080602083850312156114f5576114f461146f565b5b600083013567ffffffffffffffff81111561151357611512611474565b5b61151f85828601611488565b92509250509250929050565b611534816113ff565b811461153f57600080fd5b50565b6000813590506115518161152b565b92915050565b60006020828403121561156d5761156c61146f565b5b600061157b84828501611542565b91505092915050565b60008115159050919050565b61159981611584565b82525050565b60006020820190506115b46000830184611590565b92915050565b6115c38161143b565b81146115ce57600080fd5b50565b6000813590506115e0816115ba565b92915050565b6000602082840312156115fc576115fb61146f565b5b600061160a848285016115d1565b91505092915050565b600081519050919050565b600082825260208201905092915050565b60005b8381101561164d578082015181840152602081019050611632565b60008484015250505050565b6000601f19601f8301169050919050565b600061167582611613565b61167f818561161e565b935061168f81856020860161162f565b61169881611659565b840191505092915050565b600060208201905081810360008301526116bd818461166a565b905092915050565b600381106116d257600080fd5b50565b6000813590506116e4816116c5565b92915050565b600080604083850312156117015761170061146f565b5b600061170f858286016115d1565b9250506020611720858286016116d5565b9150509250929050565b600060608201905061173f6000830186611445565b61174c6020830185611445565b6117596040830184611445565b949350505050565b7f4e6f7420617574686f72697a6564206f7065726174696f6e0000000000000000600082015250565b600061179760188361161e565b91506117a282611761565b602082019050919050565b600060208201905081810360008301526117c68161178a565b9050919050565b7f4e487b7100000000000000000000000000000000000000000000000000000000600052603260045260246000fd5b7f4e487b7100000000000000000000000000000000000000000000000000000000600052602260045260246000fd5b6000600282049050600182168061184357607f821691505b602082108103611856576118556117fc565b5b50919050565b7f566f7573206176657a2064656a6120766f74652e000000000000000000000000600082015250565b600061189260148361161e565b915061189d8261185c565b602082019050919050565b600060208201905081810360008301526118c181611885565b9050919050565b7f4e487b7100000000000000000000000000000000000000000000000000000000600052602160045260246000fd5b7f566f746520696e76616c6964652e000000000000000000000000000000000000600082015250565b600061192d600e8361161e565b9150611938826118f7565b602082019050919050565b6000602082019050818103600083015261195c81611920565b9050919050565b7f4e487b7100000000000000000000000000000000000000000000000000000000600052601160045260246000fd5b600061199d8261143b565b91507fffffffffffffffffffffffffffffffffffffffffffffffffffffffffffffffff82036119cf576119ce611963565b5b600182019050919050565b7f5265736f6c7574696f6e20696e636f6e6e756500000000000000000000000000600082015250565b6000611a1060138361161e565b9150611a1b826119da565b602082019050919050565b60006020820190508181036000830152611a3f81611a03565b9050919050565b600060a082019050611a5b6000830188611445565b611a686020830187611445565b611a756040830186611445565b611a826060830185611445565b8181036080830152611a94818461166a565b90509695505050505050565b7f416464726573732073686f756c646e2774206265207a65726f00000000000000600082015250565b6000611ad660198361161e565b9150611ae182611aa0565b602082019050919050565b60006020820190508181036000830152611b0581611ac9565b9050919050565b7f5265736f6c7574696f6e20696e76616c6964652e000000000000000000000000600082015250565b6000611b4260148361161e565b9150611b4d82611b0c565b602082019050919050565b60006020820190508181036000830152611b7181611b35565b9050919050565b6000604082019050611b8d6000830185611411565b8181036020830152611b9f818461166a565b90509392505050565b7f4e487b7100000000000000000000000000000000000000000000000000000000600052604160045260246000fd5b60008190508160005260206000209050919050565b60006020601f8301049050919050565b600082821b905092915050565b600060088302611c397fffffffffffffffffffffffffffffffffffffffffffffffffffffffffffffffff82611bfc565b611c438683611bfc565b95508019841693508086168417925050509392505050565b6000819050919050565b6000611c80611c7b611c768461143b565b611c5b565b61143b565b9050919050565b6000819050919050565b611c9a83611c65565b611cae611ca682611c87565b848454611c09565b825550505050565b600090565b611cc3611cb6565b611cce818484611c91565b505050565b5b81811015611cf257611ce7600082611cbb565b600181019050611cd4565b5050565b601f821115611d3757611d0881611bd7565b611d1184611bec565b81016020851015611d20578190505b611d34611d2c85611bec565b830182611cd3565b50505b505050565b600082821c905092915050565b6000611d5a60001984600802611d3c565b1980831691505092915050565b6000611d738383611d49565b9150826002028217905092915050565b611d8c82611613565b67ffffffffffffffff811115611da557611da4611ba8565b5b611daf825461182b565b611dba828285611cf6565b600060209050601f831160018114611ded5760008415611ddb578287015190505b611de58582611d67565b865550611e4d565b601f198416611dfb86611bd7565b60005b82811015611e2357848901518255600182019150602085019450602081019050611dfe565b86831015611e405784890151611e3c601f891682611d49565b8355505b6001600288020188555050505b50505050505056fe4c616e63657220756e2064656669206e6174696f6e616c203a2071756920726575737369726120612074656e6972203234682073616e73207574696c6973657220756e206d6f742061206c61206d6f646520636f6d6d6520276475726162696c69746527206f752027696e6e6f766174696f6e27203f52656d706c61636572206c65205061726c656d656e742070617220756e2067726f7570652057686174734170702c20706f7572206465732064656261747320706c757320726561637469667320657420646573206465636973696f6e73206261736565732073757220646573206d656d65732e4c61207265736f6c7574696f6e206e27612070617320646520726573756c74617420636c61697220286567616c69746520656e747265206c657320766f746573292e204f6e206661697420756e207365636f6e6420746f75722e4f666672697220756e65206d656461696c6c652064276f72206120636861717565206369746f79656e20706f75722061766f697220277361757665206c6120706c616e6574652720656e20747269616e7420736f6e2064656368657420756e6520666f69732064616e73206c27616e6e65652e5461786572206c6573207265737069726174696f6e732074726f702070726f666f6e646573206166696e206465206c696d69746572206c657320656d697373696f6e7320646520434f32206465732068756d61696e732e5265636f6d70656e73657220746f75746520706572736f6e6e652063617061626c6520646520626f69726520756e20636166652073616e732070726f647569726520756e206465636865742c206e69207061726c6572206465206c276578706c6f697420737572206c6573207265736561757820736f63696175782e4f626c6967657220746f7573206c657320656d706c6f79657320612066616972652064752074656c657472617661696c2064657075697320756e2068616d61632c20706f7572206d6178696d69736572206c612070726f647563746976697465206574206c657320636f75707320646520736f6c65696c2e566f756c657a2d766f757320656c697265204d616e75656c6120636f6d6d652073637275746174657572206465206c61207365616e63652c20756e20706f737465206372756369616c20717569206368616e67657261206c6520636f757273206465206c27686973746f6972652e204f75207061732e4f7267616e69736572206465732073656d696e616972657320737572206c6120726564756374696f6e2064657320656d697373696f6e7320646520636172626f6e652e2e2e20756e697175656d656e742061636365737369626c657320656e206a65742070726976652e4d657474726520656e20706c61636520756e6520636f6d6d697373696f6e20706f75722064656369646572207369206c6573206465636973696f6e7320646f6976656e7420657472652064656369646565732070617220756e6520636f6d6d697373696f6e2e566f756c657a2d766f757320656c69726520436c656d656e636520636f6d6d6520707265736964656e7465206465206c61207365616e63652c20636172207269656e206e65207065757420636f6d6d656e6365722073616e7320756e65206669677572652064276175746f726974652073796d626f6c697175652e52656d706c6163657220746f75746573206c657320766f6974757265732070617220646573206c69636f726e65732062696f64656772616461626c65732c20706172636520717565206c27696e6e6f766174696f6e20632765737420696d706f7274616e742e4c6520726f6c6520646520707265736964656e742061206574652061747472696275652061206c2761647265737365207370656369666965652061707265732076616c69646174696f6e20647520766f74652e5472616e73666f726d657220746f7573206c657320696d6d6575626c657320656e207061696e2064276570696365732c206361722063276573742061757373692064757261626c6520717565206475206265746f6e206d6169732062656175636f757020706c75732064656c6963696575782e4c61207265736f6c7574696f6e2061206574652072656a657465652c20636172206c61206d616a6f726974652064657320766f7465732065746169656e74206e6575747265732e4c6520726f6c6520646520736372757461746575722061206574652061747472696275652061206c2761647265737365207370656369666965652061707265732076616c69646174696f6e20647520766f74652ea26469706673582212202093617a4284ca53252bb1c6800685cbde14457f4700a86a9bda31d3998a353e64736f6c634300081c0033",
  "linkReferences": {},
  "deployedLinkReferences": {}
}