{
  "_format": "hh-sol-artifact-1",
  "contractName": "Election",
  "sourceName": "contracts/Election.sol",
  "abi": [
    {
      "inputs": [],
      "stateMutability": "nonpayable",
      "type": "constructor"
    },
    {
      "anonymous": false,
      "inputs": [
        {
          "indexed": true,
          "internalType": "address",
          "name": "_beneficiary",
          "type": "address"
        }
      ],
      "name": "AddedBeneficiary",
      "type": "event"
    },
    {
      "anonymous": false,
      "inputs": [
        {
          "indexed": true,
          "internalType": "address",
          "name": "_newPresident",
          "type": "address"
        }
      ],
      "name": "NewPresidentElected",
      "type": "event"
    },
    {
      "anonymous": false,
      "inputs": [
        {
          "indexed": false,
          "internalType": "address",
          "name": "president",
          "type": "address"
        },
        {
          "indexed": false,
          "internalType": "string",
          "name": "message",
          "type": "string"
        }
      ],
      "name": "NewPresidentElectedWithMessage",
      "type": "event"
    },
    {
      "anonymous": false,
      "inputs": [
        {
          "indexed": true,
          "internalType": "address",
          "name": "_newScrutateur",
          "type": "address"
        }
      ],
      "name": "NewScrutateurElected",
      "type": "event"
    },
    {
      "anonymous": false,
      "inputs": [
        {
          "indexed": false,
          "internalType": "address",
          "name": "scrutateur",
          "type": "address"
        },
        {
          "indexed": false,
          "internalType": "string",
          "name": "message",
          "type": "string"
        }
      ],
      "name": "NewScrutateurElectedWithMessage",
      "type": "event"
    },
    {
      "anonymous": false,
      "inputs": [
        {
          "indexed": true,
          "internalType": "address",
          "name": "previousOwner",
          "type": "address"
        },
        {
          "indexed": true,
          "internalType": "address",
          "name": "newOwner",
          "type": "address"
        }
      ],
      "name": "OwnershipTransferred",
      "type": "event"
    },
    {
      "anonymous": false,
      "inputs": [
        {
          "indexed": true,
          "internalType": "uint256",
          "name": "_resolutionId",
          "type": "uint256"
        },
        {
          "indexed": false,
          "internalType": "string",
          "name": "_description",
          "type": "string"
        }
      ],
      "name": "ResolutionAdded",
      "type": "event"
    },
    {
      "anonymous": false,
      "inputs": [
        {
          "indexed": false,
          "internalType": "uint256",
          "name": "resolutionId",
          "type": "uint256"
        },
        {
          "indexed": false,
          "internalType": "uint256",
          "name": "pour",
          "type": "uint256"
        },
        {
          "indexed": false,
          "internalType": "uint256",
          "name": "contre",
          "type": "uint256"
        },
        {
          "indexed": false,
          "internalType": "uint256",
          "name": "neutre",
          "type": "uint256"
        },
        {
          "indexed": false,
          "internalType": "string",
          "name": "resultMessage",
          "type": "string"
        }
      ],
      "name": "VoteCloture",
      "type": "event"
    },
    {
      "anonymous": false,
      "inputs": [
        {
          "indexed": true,
          "internalType": "uint256",
          "name": "_resolutionId",
          "type": "uint256"
        },
        {
          "indexed": true,
          "internalType": "enum Election.Vote",
          "name": "_vote",
          "type": "uint8"
        }
      ],
      "name": "VotedForResolution",
      "type": "event"
    },
    {
      "inputs": [
        {
          "internalType": "uint256",
          "name": "_resolutionId",
          "type": "uint256"
        }
      ],
      "name": "AfficherResolution",
      "outputs": [
        {
          "internalType": "string",
          "name": "",
          "type": "string"
        }
      ],
      "stateMutability": "view",
      "type": "function"
    },
    {
      "inputs": [],
      "name": "InitialiserResolution",
      "outputs": [],
      "stateMutability": "nonpayable",
      "type": "function"
    },
    {
      "inputs": [
        {
          "internalType": "uint256",
          "name": "_resolutionId",
          "type": "uint256"
        }
      ],
      "name": "ResultatResolution",
      "outputs": [
        {
          "internalType": "uint256",
          "name": "forVotes",
          "type": "uint256"
        },
        {
          "internalType": "uint256",
          "name": "againstVotes",
          "type": "uint256"
        },
        {
          "internalType": "uint256",
          "name": "neutralVotes",
          "type": "uint256"
        }
      ],
      "stateMutability": "view",
      "type": "function"
    },
    {
      "inputs": [
        {
          "internalType": "uint256",
          "name": "_resolutionId",
          "type": "uint256"
        },
        {
          "internalType": "enum Election.Vote",
          "name": "_vote",
          "type": "uint8"
        }
      ],
      "name": "VoterResolution",
      "outputs": [],
      "stateMutability": "nonpayable",
      "type": "function"
    },
    {
      "inputs": [
        {
          "internalType": "address[]",
          "name": "_beneficiaries",
          "type": "address[]"
        }
      ],
      "name": "addToWhitelist",
      "outputs": [],
      "stateMutability": "nonpayable",
      "type": "function"
    },
    {
      "inputs": [
        {
          "internalType": "uint256",
          "name": "_resolutionId",
          "type": "uint256"
        }
      ],
      "name": "cloturerVote",
      "outputs": [],
      "stateMutability": "nonpayable",
      "type": "function"
    },
    {
      "inputs": [
        {
          "internalType": "uint256",
          "name": "_resolutionId",
          "type": "uint256"
        }
      ],
      "name": "estVoteOuvert",
      "outputs": [
        {
          "internalType": "bool",
          "name": "",
          "type": "bool"
        }
      ],
      "stateMutability": "view",
      "type": "function"
    },
    {
      "inputs": [
        {
          "internalType": "uint256",
          "name": "_resolutionId",
          "type": "uint256"
        }
      ],
      "name": "fermerVote",
      "outputs": [],
      "stateMutability": "nonpayable",
      "type": "function"
    },
    {
      "inputs": [
        {
          "internalType": "uint256",
          "name": "_resolutionId",
          "type": "uint256"
        }
      ],
      "name": "ouvrirVote",
      "outputs": [],
      "stateMutability": "nonpayable",
      "type": "function"
    },
    {
      "inputs": [],
      "name": "owner",
      "outputs": [
        {
          "internalType": "address",
          "name": "",
          "type": "address"
        }
      ],
      "stateMutability": "view",
      "type": "function"
    },
    {
      "inputs": [],
      "name": "president",
      "outputs": [
        {
          "internalType": "address",
          "name": "",
          "type": "address"
        }
      ],
      "stateMutability": "view",
      "type": "function"
    },
    {
      "inputs": [
        {
          "internalType": "address",
          "name": "_beneficiary",
          "type": "address"
        }
      ],
      "name": "removeFromWhitelist",
      "outputs": [],
      "stateMutability": "nonpayable",
      "type": "function"
    },
    {
      "inputs": [],
      "name": "resolutionsCount",
      "outputs": [
        {
          "internalType": "uint256",
          "name": "",
          "type": "uint256"
        }
      ],
      "stateMutability": "view",
      "type": "function"
    },
    {
      "inputs": [],
      "name": "scrutateur",
      "outputs": [
        {
          "internalType": "address",
          "name": "",
          "type": "address"
        }
      ],
      "stateMutability": "view",
      "type": "function"
    },
    {
      "inputs": [],
      "name": "secretaire",
      "outputs": [
        {
          "internalType": "address",
          "name": "",
          "type": "address"
        }
      ],
      "stateMutability": "view",
      "type": "function"
    },
    {
      "inputs": [
        {
          "internalType": "address",
          "name": "newOwner",
          "type": "address"
        }
      ],
      "name": "transferOwnership",
      "outputs": [],
      "stateMutability": "nonpayable",
      "type": "function"
    },
    {
      "inputs": [
        {
          "internalType": "address",
          "name": "",
          "type": "address"
        }
      ],
      "name": "whitelist",
      "outputs": [
        {
          "internalType": "bool",
          "name": "",
          "type": "bool"
        }
      ],
      "stateMutability": "view",
      "type": "function"
    }
  ],
  "bytecode": "0x608060405273ee868457836bc3f2c05f7ad7f254d807ea4ea575600260006101000a81548173ffffffffffffffffffffffffffffffffffffffff021916908373ffffffffffffffffffffffffffffffffffffffff16021790555073d0c57a0f556caeee4daa2f3b4364e6d671885adf600360006101000a81548173ffffffffffffffffffffffffffffffffffffffff021916908373ffffffffffffffffffffffffffffffffffffffff1602179055507393577d30ee25166f5433bb1fdd4bf86d8feaa194600460006101000a81548173ffffffffffffffffffffffffffffffffffffffff021916908373ffffffffffffffffffffffffffffffffffffffff16021790555034801561010f57600080fd5b50336000806101000a81548173ffffffffffffffffffffffffffffffffffffffff021916908373ffffffffffffffffffffffffffffffffffffffff1602179055506000600367ffffffffffffffff81111561016d5761016c61047f565b5b60405190808252806020026020018201604052801561019b5781602001602082028036833780820191505090505b509050600260009054906101000a900473ffffffffffffffffffffffffffffffffffffffff16816000815181106101d5576101d46104ae565b5b602002602001019073ffffffffffffffffffffffffffffffffffffffff16908173ffffffffffffffffffffffffffffffffffffffff1681525050600360009054906101000a900473ffffffffffffffffffffffffffffffffffffffff1681600181518110610246576102456104ae565b5b602002602001019073ffffffffffffffffffffffffffffffffffffffff16908173ffffffffffffffffffffffffffffffffffffffff1681525050600460009054906101000a900473ffffffffffffffffffffffffffffffffffffffff16816002815181106102b7576102b66104ae565b5b602002602001019073ffffffffffffffffffffffffffffffffffffffff16908173ffffffffffffffffffffffffffffffffffffffff16815250506103008161030660201b60201c565b5061055a565b60008054906101000a900473ffffffffffffffffffffffffffffffffffffffff1673ffffffffffffffffffffffffffffffffffffffff163373ffffffffffffffffffffffffffffffffffffffff1614610394576040517f08c379a000000000000000000000000000000000000000000000000000000000815260040161038b9061053a565b60405180910390fd5b60005b815181101561047b5760018060008484815181106103b8576103b76104ae565b5b602002602001015173ffffffffffffffffffffffffffffffffffffffff1673ffffffffffffffffffffffffffffffffffffffff16815260200190815260200160002060006101000a81548160ff021916908315150217905550818181518110610424576104236104ae565b5b602002602001015173ffffffffffffffffffffffffffffffffffffffff167f2e3361a4e7a8b067d0bbafcb5811e35ba5eccbb7a274be8bcfe4fb6f81fe30c860405160405180910390a28080600101915050610397565b5050565b7f4e487b7100000000000000000000000000000000000000000000000000000000600052604160045260246000fd5b7f4e487b7100000000000000000000000000000000000000000000000000000000600052603260045260246000fd5b600082825260208201905092915050565b7f4e6f7420617574686f72697a6564206f7065726174696f6e0000000000000000600082015250565b60006105246018836104dd565b915061052f826104ee565b602082019050919050565b6000602082019050818103600083015261055381610517565b9050919050565b6128a7806105696000396000f3fe608060405234801561001057600080fd5b506004361061010b5760003560e01c80638da5cb5b116100a2578063cb58887511610071578063cb588875146102a6578063e1a93f71146102c2578063ea7cb506146102de578063f2fde38b146102e8578063f3f1c705146103045761010b565b80638da5cb5b146101f85780639b19251a14610216578063bdd00cde14610246578063c4fc2a01146102765761010b565b806343e5f734116100de57806343e5f73414610184578063710cefcc146101a25780637f649783146101c05780638ab1d681146101dc5761010b565b80631e26700f1461011057806323b43e0f1461012c578063324a1376146101485780633400542c14610166575b600080fd5b61012a60048036038101906101259190611702565b610336565b005b61014660048036038101906101419190611702565b6103f3565b005b6101506104b0565b60405161015d9190611770565b60405180910390f35b61016e6104d6565b60405161017b9190611770565b60405180910390f35b61018c6104fc565b604051610199919061179a565b60405180910390f35b6101aa610502565b6040516101b79190611770565b60405180910390f35b6101da60048036038101906101d5919061193a565b610528565b005b6101f660048036038101906101f19190611983565b6106a1565b005b61020061078a565b60405161020d9190611770565b60405180910390f35b610230600480360381019061022b9190611983565b6107ae565b60405161023d91906119cb565b60405180910390f35b610260600480360381019061025b9190611702565b6107ce565b60405161026d91906119cb565b60405180910390f35b610290600480360381019061028b9190611702565b6107f8565b60405161029d9190611a65565b60405180910390f35b6102c060048036038101906102bb9190611aac565b61089d565b005b6102dc60048036038101906102d79190611702565b610afc565b005b6102e6610d7e565b005b61030260048036038101906102fd9190611983565b610f9a565b005b61031e60048036038101906103199190611702565b611154565b60405161032d93929190611aec565b60405180910390f35b60008054906101000a900473ffffffffffffffffffffffffffffffffffffffff1673ffffffffffffffffffffffffffffffffffffffff163373ffffffffffffffffffffffffffffffffffffffff16146103c4576040517f08c379a00000000000000000000000000000000000000000000000000000000081526004016103bb90611b6f565b60405180910390fd5b6000600b600083815260200190815260200160002060006101000a81548160ff02191690831515021790555050565b60008054906101000a900473ffffffffffffffffffffffffffffffffffffffff1673ffffffffffffffffffffffffffffffffffffffff163373ffffffffffffffffffffffffffffffffffffffff1614610481576040517f08c379a000000000000000000000000000000000000000000000000000000000815260040161047890611b6f565b60405180910390fd5b6001600b600083815260200190815260200160002060006101000a81548160ff02191690831515021790555050565b600260009054906101000a900473ffffffffffffffffffffffffffffffffffffffff1681565b600460009054906101000a900473ffffffffffffffffffffffffffffffffffffffff1681565b60055481565b600360009054906101000a900473ffffffffffffffffffffffffffffffffffffffff1681565b60008054906101000a900473ffffffffffffffffffffffffffffffffffffffff1673ffffffffffffffffffffffffffffffffffffffff163373ffffffffffffffffffffffffffffffffffffffff16146105b6576040517f08c379a00000000000000000000000000000000000000000000000000000000081526004016105ad90611b6f565b60405180910390fd5b60005b815181101561069d5760018060008484815181106105da576105d9611b8f565b5b602002602001015173ffffffffffffffffffffffffffffffffffffffff1673ffffffffffffffffffffffffffffffffffffffff16815260200190815260200160002060006101000a81548160ff02191690831515021790555081818151811061064657610645611b8f565b5b602002602001015173ffffffffffffffffffffffffffffffffffffffff167f2e3361a4e7a8b067d0bbafcb5811e35ba5eccbb7a274be8bcfe4fb6f81fe30c860405160405180910390a280806001019150506105b9565b5050565b60008054906101000a900473ffffffffffffffffffffffffffffffffffffffff1673ffffffffffffffffffffffffffffffffffffffff163373ffffffffffffffffffffffffffffffffffffffff161461072f576040517f08c379a000000000000000000000000000000000000000000000000000000000815260040161072690611b6f565b60405180910390fd5b6000600160008373ffffffffffffffffffffffffffffffffffffffff1673ffffffffffffffffffffffffffffffffffffffff16815260200190815260200160002060006101000a81548160ff02191690831515021790555050565b60008054906101000a900473ffffffffffffffffffffffffffffffffffffffff1681565b60016020528060005260406000206000915054906101000a900460ff1681565b6000600b600083815260200190815260200160002060009054906101000a900460ff169050919050565b606060076000838152602001908152602001600020805461081890611bed565b80601f016020809104026020016040519081016040528092919081815260200182805461084490611bed565b80156108915780601f1061086657610100808354040283529160200191610891565b820191906000526020600020905b81548152906001019060200180831161087457829003601f168201915b50505050509050919050565b6006600083815260200190815260200160002060003373ffffffffffffffffffffffffffffffffffffffff1673ffffffffffffffffffffffffffffffffffffffff16815260200190815260200160002060009054906101000a900460ff161561093b576040517f08c379a000000000000000000000000000000000000000000000000000000000815260040161093290611c6a565b60405180910390fd5b60008160028111156109505761094f611c8a565b5b101580156109715750600281600281111561096e5761096d611c8a565b5b11155b6109b0576040517f08c379a00000000000000000000000000000000000000000000000000000000081526004016109a790611d05565b60405180910390fd5b60016006600084815260200190815260200160002060003373ffffffffffffffffffffffffffffffffffffffff1673ffffffffffffffffffffffffffffffffffffffff16815260200190815260200160002060006101000a81548160ff02191690831515021790555060006002811115610a2d57610a2c611c8a565b5b816002811115610a4057610a3f611c8a565b5b03610a7357600860008381526020019081526020016000206000815480929190610a6990611d54565b9190505550610af8565b60016002811115610a8757610a86611c8a565b5b816002811115610a9a57610a99611c8a565b5b03610acd57600960008381526020019081526020016000206000815480929190610ac390611d54565b9190505550610af7565b600a60008381526020019081526020016000206000815480929190610af190611d54565b91905055505b5b5050565b60008054906101000a900473ffffffffffffffffffffffffffffffffffffffff1673ffffffffffffffffffffffffffffffffffffffff163373ffffffffffffffffffffffffffffffffffffffff1614610b8a576040517f08c379a0000000000000000000000000000000000000000000000000000000008152600401610b8190611b6f565b60405180910390fd5b6000600760008381526020019081526020016000208054610baa90611bed565b905011610bec576040517f08c379a0000000000000000000000000000000000000000000000000000000008152600401610be390611de8565b60405180910390fd5b6000600860008381526020019081526020016000205490506000600960008481526020019081526020016000205490506000600a600085815260200190815260200160002054905060608284118015610c4457508184115b15610c8e57610c516111f2565b6040518060400160405280601e81526020017f4c61207265736f6c7574696f6e20612065746520617070726f757665652e00008152509050610d38565b8383118015610c9c57508183115b15610cde576040518060400160405280601c81526020017f4c61207265736f6c7574696f6e2061206574652072656a657465652e000000008152509050610d37565b8382118015610cec57508282115b15610d11576040518060800160405280604781526020016127d7604791399050610d36565b6040518060800160405280605a81526020016122d2605a91399050610d358561150c565b5b5b5b7f74eab9e861e52c08183e9fb8da301c8f9baeb5d20a40ddd77179864d33e486e68585858585604051610d6f959493929190611e08565b60405180910390a15050505050565b60008054906101000a900473ffffffffffffffffffffffffffffffffffffffff1673ffffffffffffffffffffffffffffffffffffffff163373ffffffffffffffffffffffffffffffffffffffff1614610e0c576040517f08c379a0000000000000000000000000000000000000000000000000000000008152600401610e0390611b6f565b60405180910390fd5b610e2d6040518060a00160405280607b8152602001612630607b9139611640565b610e4e6040518060a00160405280607681526020016124ea60769139611640565b610e6f6040518060a001604052806073815260200161232c60739139611640565b610e906040518060a00160405280606681526020016126ab60669139611640565b610eb16040518060a001604052806078815260200161247260789139611640565b610ed260405180608001604052806057815260200161239f60579139611640565b610ef36040518060a001604052806073815260200161276460739139611640565b610f146040518060a001604052806073815260200161225f60739139611640565b610f356040518060a00160405280607c81526020016123f6607c9139611640565b610f566040518060a00160405280606a8152602001612560606a9139611640565b610f776040518060a00160405280607681526020016121e960769139611640565b610f986040518060a00160405280606681526020016125ca60669139611640565b565b60008054906101000a900473ffffffffffffffffffffffffffffffffffffffff1673ffffffffffffffffffffffffffffffffffffffff163373ffffffffffffffffffffffffffffffffffffffff1614611028576040517f08c379a000000000000000000000000000000000000000000000000000000000815260040161101f90611b6f565b60405180910390fd5b600073ffffffffffffffffffffffffffffffffffffffff168173ffffffffffffffffffffffffffffffffffffffff1603611097576040517f08c379a000000000000000000000000000000000000000000000000000000000815260040161108e90611eae565b60405180910390fd5b8073ffffffffffffffffffffffffffffffffffffffff1660008054906101000a900473ffffffffffffffffffffffffffffffffffffffff1673ffffffffffffffffffffffffffffffffffffffff167f8be0079c531659141344cd1fd0a4f28419497f9722a3daafe3b4186f6b6457e060405160405180910390a3806000806101000a81548173ffffffffffffffffffffffffffffffffffffffff021916908373ffffffffffffffffffffffffffffffffffffffff16021790555050565b6000806000808411801561116a57506005548411155b6111a9576040517f08c379a00000000000000000000000000000000000000000000000000000000081526004016111a090611f1a565b60405180910390fd5b6008600085815260200190815260200160002054925060096000858152602001908152602001600020549150600a60008581526020019081526020016000205490509193909250565b600073ffffffffffffffffffffffffffffffffffffffff16600260009054906101000a900473ffffffffffffffffffffffffffffffffffffffff1673ffffffffffffffffffffffffffffffffffffffff161480156112775750600960006001815260200190815260200160002054600860006001815260200190815260200160002054115b80156112aa5750600a60006001815260200190815260200160002054600860006001815260200190815260200160002054115b1561137e5773ee868457836bc3f2c05f7ad7f254d807ea4ea575600260006101000a81548173ffffffffffffffffffffffffffffffffffffffff021916908373ffffffffffffffffffffffffffffffffffffffff16021790555060006040518060800160405280605381526020016127116053913990507fdeb2ab67357575ef4695baf99acf9b3977db0c43fab6e818760af64a26d0f676600260009054906101000a900473ffffffffffffffffffffffffffffffffffffffff1682604051611374929190611f3a565b60405180910390a1505b600073ffffffffffffffffffffffffffffffffffffffff16600360009054906101000a900473ffffffffffffffffffffffffffffffffffffffff1673ffffffffffffffffffffffffffffffffffffffff161480156114035750600960006002815260200190815260200160002054600860006002815260200190815260200160002054115b80156114365750600a60006002815260200190815260200160002054600860006002815260200190815260200160002054115b1561150a5773ee868457836bc3f2c05f7ad7f254d807ea4ea575600360006101000a81548173ffffffffffffffffffffffffffffffffffffffff021916908373ffffffffffffffffffffffffffffffffffffffff160217905550600060405180608001604052806054815260200161281e6054913990507f761ef40b000e7731a8a8669a61cfc8febd56e8ff65416d8e49bc01357587a387600360009054906101000a900473ffffffffffffffffffffffffffffffffffffffff1682604051611500929190611f3a565b60405180910390a1505b565b600060076000838152602001908152602001600020805461152c90611bed565b90501161156e576040517f08c379a000000000000000000000000000000000000000000000000000000000815260040161156590611de8565b60405180910390fd5b60006008600083815260200190815260200160002081905550600060096000838152602001908152602001600020819055506000600a60008381526020019081526020016000208190555060005b60055481101561163c5760006006600084815260200190815260200160002060003373ffffffffffffffffffffffffffffffffffffffff1673ffffffffffffffffffffffffffffffffffffffff16815260200190815260200160002060006101000a81548160ff02191690831515021790555080806001019150506115bc565b5050565b6005600081548092919061165390611d54565b919050555080600760006005548152602001908152602001600020908161167a9190612116565b506005547f14a9277804b56a381d8e536e29b9ed92b395e36216ed9d175d8bc6d706bda82c826040516116ad9190611a65565b60405180910390a250565b6000604051905090565b600080fd5b600080fd5b6000819050919050565b6116df816116cc565b81146116ea57600080fd5b50565b6000813590506116fc816116d6565b92915050565b600060208284031215611718576117176116c2565b5b6000611726848285016116ed565b91505092915050565b600073ffffffffffffffffffffffffffffffffffffffff82169050919050565b600061175a8261172f565b9050919050565b61176a8161174f565b82525050565b60006020820190506117856000830184611761565b92915050565b611794816116cc565b82525050565b60006020820190506117af600083018461178b565b92915050565b600080fd5b6000601f19601f8301169050919050565b7f4e487b7100000000000000000000000000000000000000000000000000000000600052604160045260246000fd5b611803826117ba565b810181811067ffffffffffffffff82111715611822576118216117cb565b5b80604052505050565b60006118356116b8565b905061184182826117fa565b919050565b600067ffffffffffffffff821115611861576118606117cb565b5b602082029050602081019050919050565b600080fd5b6118808161174f565b811461188b57600080fd5b50565b60008135905061189d81611877565b92915050565b60006118b66118b184611846565b61182b565b905080838252602082019050602084028301858111156118d9576118d8611872565b5b835b8181101561190257806118ee888261188e565b8452602084019350506020810190506118db565b5050509392505050565b600082601f830112611921576119206117b5565b5b81356119318482602086016118a3565b91505092915050565b6000602082840312156119505761194f6116c2565b5b600082013567ffffffffffffffff81111561196e5761196d6116c7565b5b61197a8482850161190c565b91505092915050565b600060208284031215611999576119986116c2565b5b60006119a78482850161188e565b91505092915050565b60008115159050919050565b6119c5816119b0565b82525050565b60006020820190506119e060008301846119bc565b92915050565b600081519050919050565b600082825260208201905092915050565b60005b83811015611a20578082015181840152602081019050611a05565b60008484015250505050565b6000611a37826119e6565b611a4181856119f1565b9350611a51818560208601611a02565b611a5a816117ba565b840191505092915050565b60006020820190508181036000830152611a7f8184611a2c565b905092915050565b60038110611a9457600080fd5b50565b600081359050611aa681611a87565b92915050565b60008060408385031215611ac357611ac26116c2565b5b6000611ad1858286016116ed565b9250506020611ae285828601611a97565b9150509250929050565b6000606082019050611b01600083018661178b565b611b0e602083018561178b565b611b1b604083018461178b565b949350505050565b7f4e6f7420617574686f72697a6564206f7065726174696f6e0000000000000000600082015250565b6000611b596018836119f1565b9150611b6482611b23565b602082019050919050565b60006020820190508181036000830152611b8881611b4c565b9050919050565b7f4e487b7100000000000000000000000000000000000000000000000000000000600052603260045260246000fd5b7f4e487b7100000000000000000000000000000000000000000000000000000000600052602260045260246000fd5b60006002820490506001821680611c0557607f821691505b602082108103611c1857611c17611bbe565b5b50919050565b7f566f7573206176657a2064656a6120766f74652e000000000000000000000000600082015250565b6000611c546014836119f1565b9150611c5f82611c1e565b602082019050919050565b60006020820190508181036000830152611c8381611c47565b9050919050565b7f4e487b7100000000000000000000000000000000000000000000000000000000600052602160045260246000fd5b7f566f746520696e76616c6964652e000000000000000000000000000000000000600082015250565b6000611cef600e836119f1565b9150611cfa82611cb9565b602082019050919050565b60006020820190508181036000830152611d1e81611ce2565b9050919050565b7f4e487b7100000000000000000000000000000000000000000000000000000000600052601160045260246000fd5b6000611d5f826116cc565b91507fffffffffffffffffffffffffffffffffffffffffffffffffffffffffffffffff8203611d9157611d90611d25565b5b600182019050919050565b7f5265736f6c7574696f6e20696e636f6e6e756500000000000000000000000000600082015250565b6000611dd26013836119f1565b9150611ddd82611d9c565b602082019050919050565b60006020820190508181036000830152611e0181611dc5565b9050919050565b600060a082019050611e1d600083018861178b565b611e2a602083018761178b565b611e37604083018661178b565b611e44606083018561178b565b8181036080830152611e568184611a2c565b90509695505050505050565b7f416464726573732073686f756c646e2774206265207a65726f00000000000000600082015250565b6000611e986019836119f1565b9150611ea382611e62565b602082019050919050565b60006020820190508181036000830152611ec781611e8b565b9050919050565b7f5265736f6c7574696f6e20696e76616c6964652e000000000000000000000000600082015250565b6000611f046014836119f1565b9150611f0f82611ece565b602082019050919050565b60006020820190508181036000830152611f3381611ef7565b9050919050565b6000604082019050611f4f6000830185611761565b8181036020830152611f618184611a2c565b90509392505050565b60008190508160005260206000209050919050565b60006020601f8301049050919050565b600082821b905092915050565b600060088302611fcc7fffffffffffffffffffffffffffffffffffffffffffffffffffffffffffffffff82611f8f565b611fd68683611f8f565b95508019841693508086168417925050509392505050565b6000819050919050565b600061201361200e612009846116cc565b611fee565b6116cc565b9050919050565b6000819050919050565b61202d83611ff8565b6120416120398261201a565b848454611f9c565b825550505050565b600090565b612056612049565b612061818484612024565b505050565b5b818110156120855761207a60008261204e565b600181019050612067565b5050565b601f8211156120ca5761209b81611f6a565b6120a484611f7f565b810160208510156120b3578190505b6120c76120bf85611f7f565b830182612066565b50505b505050565b600082821c905092915050565b60006120ed600019846008026120cf565b1980831691505092915050565b600061210683836120dc565b9150826002028217905092915050565b61211f826119e6565b67ffffffffffffffff811115612138576121376117cb565b5b6121428254611bed565b61214d828285612089565b600060209050601f831160018114612180576000841561216e578287015190505b61217885826120fa565b8655506121e0565b601f19841661218e86611f6a565b60005b828110156121b657848901518255600182019150602085019450602081019050612191565b868310156121d357848901516121cf601f8916826120dc565b8355505b6001600288020188555050505b50505050505056fe4c616e63657220756e2064656669206e6174696f6e616c203a2071756920726575737369726120612074656e6972203234682073616e73207574696c6973657220756e206d6f742061206c61206d6f646520636f6d6d6520276475726162696c69746527206f752027696e6e6f766174696f6e27203f52656d706c61636572206c65205061726c656d656e742070617220756e2067726f7570652057686174734170702c20706f7572206465732064656261747320706c757320726561637469667320657420646573206465636973696f6e73206261736565732073757220646573206d656d65732e4c61207265736f6c7574696f6e206e27612070617320646520726573756c74617420636c61697220286567616c69746520656e747265206c657320766f746573292e204f6e206661697420756e207365636f6e6420746f75722e4f666672697220756e65206d656461696c6c652064276f72206120636861717565206369746f79656e20706f75722061766f697220277361757665206c6120706c616e6574652720656e20747269616e7420736f6e2064656368657420756e6520666f69732064616e73206c27616e6e65652e5461786572206c6573207265737069726174696f6e732074726f702070726f666f6e646573206166696e206465206c696d69746572206c657320656d697373696f6e7320646520434f32206465732068756d61696e732e5265636f6d70656e73657220746f75746520706572736f6e6e652063617061626c6520646520626f69726520756e20636166652073616e732070726f647569726520756e206465636865742c206e69207061726c6572206465206c276578706c6f697420737572206c6573207265736561757820736f63696175782e4f626c6967657220746f7573206c657320656d706c6f79657320612066616972652064752074656c657472617661696c2064657075697320756e2068616d61632c20706f7572206d6178696d69736572206c612070726f647563746976697465206574206c657320636f75707320646520736f6c65696c2e566f756c657a2d766f757320656c697265204d616e75656c6120636f6d6d652073637275746174657572206465206c61207365616e63652c20756e20706f737465206372756369616c20717569206368616e67657261206c6520636f757273206465206c27686973746f6972652e204f75207061732e4f7267616e69736572206465732073656d696e616972657320737572206c6120726564756374696f6e2064657320656d697373696f6e7320646520636172626f6e652e2e2e20756e697175656d656e742061636365737369626c657320656e206a65742070726976652e4d657474726520656e20706c61636520756e6520636f6d6d697373696f6e20706f75722064656369646572207369206c6573206465636973696f6e7320646f6976656e7420657472652064656369646565732070617220756e6520636f6d6d697373696f6e2e566f756c657a2d766f757320656c69726520436c656d656e636520636f6d6d6520707265736964656e7465206465206c61207365616e63652c20636172207269656e206e65207065757420636f6d6d656e6365722073616e7320756e65206669677572652064276175746f726974652073796d626f6c697175652e52656d706c6163657220746f75746573206c657320766f6974757265732070617220646573206c69636f726e65732062696f64656772616461626c65732c20706172636520717565206c27696e6e6f766174696f6e20632765737420696d706f7274616e742e4c6520726f6c6520646520707265736964656e742061206574652061747472696275652061206c2761647265737365207370656369666965652061707265732076616c69646174696f6e20647520766f74652e5472616e73666f726d657220746f7573206c657320696d6d6575626c657320656e207061696e2064276570696365732c206361722063276573742061757373692064757261626c6520717565206475206265746f6e206d6169732062656175636f757020706c75732064656c6963696575782e4c61207265736f6c7574696f6e2061206574652072656a657465652c20636172206c61206d616a6f726974652064657320766f7465732065746169656e74206e6575747265732e4c6520726f6c6520646520736372757461746575722061206574652061747472696275652061206c2761647265737365207370656369666965652061707265732076616c69646174696f6e20647520766f74652ea2646970667358221220309788a5a2c682911099ba8a8766102f4bc0897f4f1819d1740adb83dd7fb69a64736f6c634300081c0033",
  "linkReferences": {},
  "deployedLinkReferences": {}
}