{
  "_format": "hh-sol-artifact-1",
  "contractName": "Whitelist",
  "sourceName": "contracts/Whitelist.sol",
  "abi": [
    {
      "anonymous": false,
      "inputs": [
        {
          "indexed": true,
          "internalType": "address",
          "name": "_beneficiary",
          "type": "address"
        }
      ],
      "name": "AddedBeneficiary",
      "type": "event"
    },
    {
      "anonymous": false,
      "inputs": [
        {
          "indexed": true,
          "internalType": "address",
          "name": "previousOwner",
          "type": "address"
        },
        {
          "indexed": true,
          "internalType": "address",
          "name": "newOwner",
          "type": "address"
        }
      ],
      "name": "OwnershipTransferred",
      "type": "event"
    },
    {
      "inputs": [
        {
          "internalType": "address[]",
          "name": "_beneficiaries",
          "type": "address[]"
        }
      ],
      "name": "addToWhitelist",
      "outputs": [],
      "stateMutability": "nonpayable",
      "type": "function"
    },
    {
      "inputs": [],
      "name": "owner",
      "outputs": [
        {
          "internalType": "address",
          "name": "",
          "type": "address"
        }
      ],
      "stateMutability": "view",
      "type": "function"
    },
    {
      "inputs": [
        {
          "internalType": "address",
          "name": "_beneficiary",
          "type": "address"
        }
      ],
      "name": "removeFromWhitelist",
      "outputs": [],
      "stateMutability": "nonpayable",
      "type": "function"
    },
    {
      "inputs": [
        {
          "internalType": "address",
          "name": "newOwner",
          "type": "address"
        }
      ],
      "name": "transferOwnership",
      "outputs": [],
      "stateMutability": "nonpayable",
      "type": "function"
    },
    {
      "inputs": [
        {
          "internalType": "address",
          "name": "",
          "type": "address"
        }
      ],
      "name": "whitelist",
      "outputs": [
        {
          "internalType": "bool",
          "name": "",
          "type": "bool"
        }
      ],
      "stateMutability": "view",
      "type": "function"
    }
  ],
  "bytecode": "0x6080604052348015600f57600080fd5b50336000806101000a81548173ffffffffffffffffffffffffffffffffffffffff021916908373ffffffffffffffffffffffffffffffffffffffff16021790555061094d8061005f6000396000f3fe608060405234801561001057600080fd5b50600436106100575760003560e01c80637f6497831461005c5780638ab1d681146100785780638da5cb5b146100945780639b19251a146100b2578063f2fde38b146100e2575b600080fd5b61007660048036038101906100719190610729565b6100fe565b005b610092600480360381019061008d9190610772565b610277565b005b61009c610360565b6040516100a991906107ae565b60405180910390f35b6100cc60048036038101906100c79190610772565b610384565b6040516100d991906107e4565b60405180910390f35b6100fc60048036038101906100f79190610772565b6103a4565b005b60008054906101000a900473ffffffffffffffffffffffffffffffffffffffff1673ffffffffffffffffffffffffffffffffffffffff163373ffffffffffffffffffffffffffffffffffffffff161461018c576040517f08c379a00000000000000000000000000000000000000000000000000000000081526004016101839061085c565b60405180910390fd5b60005b81518110156102735760018060008484815181106101b0576101af61087c565b5b602002602001015173ffffffffffffffffffffffffffffffffffffffff1673ffffffffffffffffffffffffffffffffffffffff16815260200190815260200160002060006101000a81548160ff02191690831515021790555081818151811061021c5761021b61087c565b5b602002602001015173ffffffffffffffffffffffffffffffffffffffff167f2e3361a4e7a8b067d0bbafcb5811e35ba5eccbb7a274be8bcfe4fb6f81fe30c860405160405180910390a2808060010191505061018f565b5050565b60008054906101000a900473ffffffffffffffffffffffffffffffffffffffff1673ffffffffffffffffffffffffffffffffffffffff163373ffffffffffffffffffffffffffffffffffffffff1614610305576040517f08c379a00000000000000000000000000000000000000000000000000000000081526004016102fc9061085c565b60405180910390fd5b6000600160008373ffffffffffffffffffffffffffffffffffffffff1673ffffffffffffffffffffffffffffffffffffffff16815260200190815260200160002060006101000a81548160ff02191690831515021790555050565b60008054906101000a900473ffffffffffffffffffffffffffffffffffffffff1681565b60016020528060005260406000206000915054906101000a900460ff1681565b60008054906101000a900473ffffffffffffffffffffffffffffffffffffffff1673ffffffffffffffffffffffffffffffffffffffff163373ffffffffffffffffffffffffffffffffffffffff1614610432576040517f08c379a00000000000000000000000000000000000000000000000000000000081526004016104299061085c565b60405180910390fd5b600073ffffffffffffffffffffffffffffffffffffffff168173ffffffffffffffffffffffffffffffffffffffff16036104a1576040517f08c379a0000000000000000000000000000000000000000000000000000000008152600401610498906108f7565b60405180910390fd5b8073ffffffffffffffffffffffffffffffffffffffff1660008054906101000a900473ffffffffffffffffffffffffffffffffffffffff1673ffffffffffffffffffffffffffffffffffffffff167f8be0079c531659141344cd1fd0a4f28419497f9722a3daafe3b4186f6b6457e060405160405180910390a3806000806101000a81548173ffffffffffffffffffffffffffffffffffffffff021916908373ffffffffffffffffffffffffffffffffffffffff16021790555050565b6000604051905090565b600080fd5b600080fd5b600080fd5b6000601f19601f8301169050919050565b7f4e487b7100000000000000000000000000000000000000000000000000000000600052604160045260246000fd5b6105c082610577565b810181811067ffffffffffffffff821117156105df576105de610588565b5b80604052505050565b60006105f261055e565b90506105fe82826105b7565b919050565b600067ffffffffffffffff82111561061e5761061d610588565b5b602082029050602081019050919050565b600080fd5b600073ffffffffffffffffffffffffffffffffffffffff82169050919050565b600061065f82610634565b9050919050565b61066f81610654565b811461067a57600080fd5b50565b60008135905061068c81610666565b92915050565b60006106a56106a084610603565b6105e8565b905080838252602082019050602084028301858111156106c8576106c761062f565b5b835b818110156106f157806106dd888261067d565b8452602084019350506020810190506106ca565b5050509392505050565b600082601f8301126107105761070f610572565b5b8135610720848260208601610692565b91505092915050565b60006020828403121561073f5761073e610568565b5b600082013567ffffffffffffffff81111561075d5761075c61056d565b5b610769848285016106fb565b91505092915050565b60006020828403121561078857610787610568565b5b60006107968482850161067d565b91505092915050565b6107a881610654565b82525050565b60006020820190506107c3600083018461079f565b92915050565b60008115159050919050565b6107de816107c9565b82525050565b60006020820190506107f960008301846107d5565b92915050565b600082825260208201905092915050565b7f4e6f7420617574686f72697a6564206f7065726174696f6e0000000000000000600082015250565b60006108466018836107ff565b915061085182610810565b602082019050919050565b6000602082019050818103600083015261087581610839565b9050919050565b7f4e487b7100000000000000000000000000000000000000000000000000000000600052603260045260246000fd5b7f416464726573732073686f756c646e2774206265207a65726f00000000000000600082015250565b60006108e16019836107ff565b91506108ec826108ab565b602082019050919050565b60006020820190508181036000830152610910816108d4565b905091905056fea264697066735822122026640d901daa1c6bbda0ecc1449e37c98d5e9ec1ad8d5e1e86baba87803832d764736f6c634300081c0033",
  "linkReferences": {},
  "deployedLinkReferences": {}
}